:020000040800F2
:10000000B03C0020DDA10008890600088B0600082E
:10001000AB060008AF060008B306000800000000A9
:10002000000000000000000000000000B70600080B
:10003000B906000800000000D94F0008B90B0008FD
:10004000F7A10008F7A10008F7A10008F7A1000830
:10005000F7A10008F7A10008F7A10008F7A1000820
:10006000F7A10008F7A10008F7A10008F7A1000810
:10007000F7A10008F7A10008F7A10008F7A1000800
:10008000F7A10008F7A10008F7A10008F7A10008F0
:10009000F7A10008F7A10008F7A10008F7A10008E0
:1000A000F7A10008F7A10008F7A10008F7A10008D0
:1000B000F7A10008F7A10008F7A10008F7A10008C0
:1000C000F7A10008F7A10008F7A10008F7A10008B0
:1000D000F7A10008F7A10008F7A10008F7A10008A0
:1000E000F7A10008F7A10008F7A10008F7A1000890
:1000F000F7A10008F7A10008F7A10008F7A1000880
:10010000F7A10008336B0008F7A10008F7A1000869
:10011000F7A10008F7A10008F7A10008F7A100085F
:10012000F7A10008F7A10008F7A10008F7A100084F
:1001300000F002F800F05CF80AA090E8000C82449D
:100140008344AAF10107DA4501D100F051F8AFF27A
:10015000090EBAE80F0013F0010F18BFFB1A43F0A5
:100160000103184724BA000044BA00000A444FF0C3
:10017000000C10F8013B13F0070408BF10F8014B06
:100180001D1108BF10F8015B641E05D010F8016B4B
:10019000641E01F8016BF9D113F0080F1EBF10F8AF
:1001A000014BAD1C0C1B09D16D1E58BF01F801CBD2
:1001B000FAD505E014F8016B01F8016B6D1EF9D555
:1001C0009142D6D37047000000230024002500266A
:1001D000103A28BF78C1FBD8520728BF30C148BFAA
:1001E0000B6070471FB50BF0AAF91FBD10B510BD0D
:1001F0000AF0F3F91146FFF7F5FF00F09DF90AF058
:1002000011FA03B4FFF7F2FF03BC0AF01BFA000077
:1002100030BF72B662B680F30888704710B504220A
:100220000021062001F06EFBD149002001F094FC72
:10023000D049012001F090FCCF49022001F08CFC54
:1002400010BD10B503220021062001F05BFBCB4A54
:10025000CBA1002001F0C6FFCA4ACBA1012001F0CA
:10026000C1FFCA4ACAA1022001F0BCFF10BD7CB583
:10027000002401F0F1FA04460CB1C748047006F0FE
:1002800022FE05460346C4480278CDE90023C3A3F5
:1002900001220821002002F0EFFA7CBD10B50222F5
:1002A0000021062001F02EFBC149002001F054FC82
:1002B000C049012001F050FC10BD10B506F0E5FC6E
:1002C000BD49002008F056FABC49087010BD10B5B1
:1002D00006F0DBFC0B22BAA1BD4808F063FAB7496F
:1002E0000870BC4B1922BC49B94808F019FCB34945
:1002F0000870B74808F079FDB049087010BD10B516
:1003000006F0C3FC0122AEA1B14808F04BFAAB499C
:100310000870B24B5022B249AD4808F00DFBA74916
:100320000870AB4808F061FDA449087010BD1FB506
:1003300003220521062001F0E5FAAFF28102A9A10E
:10034000002001F04FFFAFF27902A9A1012001F0D6
:1003500049FFAFF25502A9A1022001F043FFAA48CC
:10036000C16C806CCDE9020194480378A7480278FB
:10037000CDE90023A6A3FE222021002002F07CFA72
:10038000974B0093A6A301221821002002F074FAD3
:10039000934B15330093A2A301221021002002F0F9
:1003A0006BFA8F4B2A3300939DA301220821002072
:1003B00002F062FA8A4B3F33009399A30122002195
:1003C000084602F059FA1FBD10B54FF40072002123
:1003D000012009F0C7F910BD10B506F056FC91498F
:1003E000012008F0C7F97549087010BD10B506F076
:1003F0004CFC0B228CA1904808F0D4F96F4908708E
:10040000744B17228D498C4808F08AFB6B490870A1
:10041000894808F0EAFC6949087010BD10B506F07B
:1004200034FC012280A1844808F0BCF963490870BB
:100430006A4B50226A49804808F07EFA5F4908708A
:100440007D4808F0D2FC5D49087010BD1CB504223F
:100450000521062001F056FAAFF2930278A10020A0
:1004600001F0C0FEAFF28F0278A1012001F0BAFEC8
:10047000AFF2870278A1022001F0B4FEAFF263026E
:1004800078A1032001F0AEFE4C4803785F48027863
:10049000CDE9002376A3FE222021002002F0ECF912
:1004A0004F4B00935EA301221821002002F0E4F9D3
:1004B0004B4B153300935AA301221021002002F068
:1004C000DBF9474B2A33009355A301220821002072
:1004D00002F0D2F9424B3F33009351A30122002195
:1004E000084602F0C9F91CBD002400BF0CE006F06C
:1004F0009CFC0446204601F0A9F901F0B0F900F097
:10050000F7FB1E2000F0A9FBF1E770B504460025BB
:1005100000BF02F0B8FE04F03FFD05460A23574A2B
:100520000021AFF23B0004F07DF82B2004F0FFFA2D
:10053000284604F035FD70BD10B500F045FB06F00F
:1005400083FB06F0B8FD06F05FFC4D4800F0BCFBF5
:1005500006F09BFB02F05BFD2B234A4A0021AFF221
:10056000550004F05FF802F076FE002010BD000098
:100570000C00002018000020240000207B6C0008E4
:100580004F6E0000836C00084F6666008B6C00089D
:10059000426C696E6B000000780000206B65793D4D
:1005A00025582C7377697463683D25580000000056
:1005B000600000206C000020380B00207900002033
:1005C000303A2F66746573742E74787400000000DE
:1005D000A00F002080000020300000207C000020C0
:1005E000F8130020312E665F6D6F756E7400000089
:1005F000322E665F7772697465000000332E665F85
:100600006F70656E000000009825002086000020B5
:10061000533D25642C723D25642C433D2564000028
:10062000257300006C0D0020313A2F6674657374D9
:100630002E74787400000000CC11002049000020C6
:10064000312E665F6D6B667300000000322E665FB0
:100650006D6F756E74000000332E665F777269747B
:1006600065000000342E665F6F70656E000000004C
:10067000533D25642C723D2564000000340B00209E
:10068000000000203403002070470DE00BA301227E
:100690000821002000F04CFE0DA301220021084695
:1006A00000F046FE00F024FBF0E700BFFEE700BFCD
:1006B000FEE700BFFEE77047704700005B457272BF
:1006C0006F723A486172644661756C74215D000016
:1006D000706C6561736520707265737320726573E9
:1006E0006574210000210020674A126842F48032BC
:1006F000654B1A6000BF644A126802F40030491C5E
:1007000010B9B1F5A06FF6D15F4A126812F4003F3C
:1007100001D0012000E00020012842D15B4A12688C
:1007200042F01002594B1A601A46126822F0030276
:100730001A601A46126842F002021A60524A52685F
:10074000514B5A601A4652685A601A46526842F42F
:1007500080625A601A46526822F47C125A601A4625
:10076000526842F4E8125A601A46126842F08072E7
:100770001A6000BF444A126812F0007FFAD0424A61
:10078000526822F00302404B5A601A46526842F007
:1007900002025A6000BF3C4A526802F00C02082A6A
:1007A000F9D1704710B5FFF79DFF10BD10B5364861
:1007B000006840F001003449086008464068344948
:1007C00008403149486008460068324908402E49CF
:1007D00008600846006820F48020086008464068E9
:1007E00020F4FE0048604FF41F008860FFF7DAFF36
:1007F0004FF000602849086010BD10B500210020AE
:100800000022214B5B6803F00C0121B1042906D0C2
:10081000082928D107E0214B214C236027E01F4BFA
:100820001F4C236023E0184B5B6803F47010164BD9
:100830005B6803F48032022303EB904022B9194B2A
:100840004343174C23600DE00F4B5B6813F4003FEC
:1008500004D0144B4343124C236003E00F4B43433B
:100860000F4C236003E00D4B0D4C236000BF00BF15
:10087000054B5B68C3F303130B4CE15C084B1B682F
:10088000CB40074C236010BD001002400020024006
:100890000000FFF8FFFFF6FE08ED00E000127A000E
:1008A0008800002000093D008C000020B04A0A406A
:1008B0000243B04B1A6070470146072323EA010246
:1008C0001202AD4B18684FF6FF0300EA0300AB4B72
:1008D00040EA030040EA02004FF0E023C3F80C0DA9
:1008E00070472DE9F0478046894614461D4620464C
:1008F000E11704EB91714FEAA10AE11704EB917142
:100900008910A4EB8101CFB2042000EBC700C7B26D
:100910002846FFF7D1FFC5F1040008FA00F60F20C2
:10092000284100EA0900064306F00F06202C0CDAE5
:10093000934801684FF0010000FA04F041EA000119
:100940004FF0E020C0F800110DE08E480068A4F1DF
:1009500020014FF0010202FA01F240EA02004FF0DA
:10096000E021C1F80401884810F80A0006FA07F1EE
:100970000843C1B2844800F80A10BDE8F08770B59A
:1009800004460B46CE1701EB9676B010CE1701EB5E
:100990009676B610A1EB8606B606350E7B4B9B69A4
:1009A00043F00103794EB3614FEAB63353F8203078
:1009B0000F26AE40B343764E46F82030334653F808
:1009C000203004FA05F63343714E46F82030714B5F
:1009D0001E684FF0010303FA01F346EA03066E4B6B
:1009E000C3F8006412F0010F0AD06C4B1B684FF083
:1009F000010606FA01F643EA0603674EC6F80C3410
:100A000012F0020F0AD0664B1B684FF0010606FA7F
:100A100001F643EA0603604EC6F8083470BD00B51F
:100A200000205A490861C86014204861002088618C
:100A3000C8610846006840F0010008600846406848
:100A400058490840514948600846006856490840DE
:100A50004E4908600846006820F480200860084677
:100A6000406820F4FE0048600020886000214FF0BC
:100A70000060FFF71BFF00BD10B54C48006840F058
:100A800004004FF0E021C1F8100D4048C06940F06B
:100A900080503E49C8614648406840F480704449EF
:100AA00048600846006840F0040008600846006896
:100AB00040F002000860FFF7ABFB10BD2F48001D9F
:100AC0002D490860704701464906304A926942F054
:100AD00001022E4B9A61304A526822F0E0622E4B9E
:100AE0005A601A4652680A435A60704730B5044645
:100AF0000025FFF794FF2548006840F48030234923
:100B0000086000BF21480068400CFBD04FF48060B3
:100B10001E494860A01EC4B20846406840EA8440AE
:100B200048600846406840F48030486021480068CA
:100B300040F032001F4908601448006840F080709F
:100B40001249086000BF11480068400EFBD00F48F2
:100B5000406840F002000D49486005E00B484068DD
:100B6000C0F3870505F00305022DF7D130BD000065
:100B700080FFFF1F08ED00E00CED00E00000FA052B
:100B800000E100E004E100E000E400E000100240C9
:100B90000800014000040140000001400C04014035
:100BA000080401400000FFF8FFFFF6FE10ED00E032
:100BB000007000400020024010B502F03EFA02F042
:100BC00081FB02F055FA10BD10B56FF0040009F07A
:100BD000E2FA314800683149B0FBF1F03049087061
:100BE0002D4800682D49B0FBF1F441F288304443B0
:100BF00005202C4908804FF0E020006940F00200F9
:100C00004FF0E021086108464461006940F00100AE
:100C1000086110BD70B5034600224FF0E0267569EB
:100C20001F4E367803FB06F400BF4FF0E026B16993
:100C300010E04FF0E026B06988420BD0884202D223
:100C40000E1A324402E02E1A0E4432440146A242E9
:100C500000D300E0EDE700BF70BD70B50446124858
:100C60000078012811D10F480088844206DB0D4826
:100C7000008894FBF0F5284604F044F80948008801
:100C800094FBF0F100FB114084B24FF47A7104FB45
:100C900001F0FFF7BFFF70BD8800002000127A004E
:100CA0009C0000209E0000205601002010B504F09A
:100CB00094FA10BD10B50446204604F0FDFA10BDAC
:100CC00010B504F06EFA10BD10B50446FFF7EEFF44
:100CD0004FF480611F4809F060FB204600F0AFFD33
:100CE00010BD10B54FF480611A4809F056FB10BDD5
:100CF00010B51848FFF7DEFFFFF7F3FF10BDF0B5A2
:100D00000B4614460025802801D2402B00D3F0BDAD
:100D10000726A6EBD306F1B203F00702C2F10707DC
:100D20000126BE40F5B24CB10A4E06EBC006765C19
:100D30002E43084F07EBC0077E5408E0054E06EB34
:100D4000C006765CAE43034F07EBC0077E5400BF7E
:100D5000DDE700005C14002029B1012902D0FE2942
:100D600007D101E000BF00BFFF4B0CCBC0E900235F
:100D70007047FD4B0CCBC0E9002300BFF8E72DE91D
:100D8000FE4F0446884615461E460120029004F098
:100D9000FF0B31466846FFF7DFFF9DF8000030404B
:100DA0000290A5F12000C5B29DF80200401E47B296
:100DB00033E09DF80210019805FB010010F8079040
:100DC0004FF0000A23E019F0800F05D0414620467D
:100DD000029AFFF794FF09E0029808B9012000E0A9
:100DE0000020C2B241462046FFF789FF4FEA496022
:100DF0004FEA1069641CA4EB0B00082803D15C4681
:100E000008F1010806E00AF1010000F0FF0ABAF15A
:100E1000080FD8DB00BF781E47B2002FC9DABDE843
:100E2000FE8F2DE9FC410646884614461F460025E4
:100E300039466846FFF790FF0AE0625D3B4641464F
:100E40003046FFF79CFF9DF801000644681CC5B2C0
:100E5000605D0028F1D1BDE8FC812DE9FF4F9FB016
:100E60001D461F9800F0FF0800201C9003201B90D7
:100E700001200C90219908A8FFF76EFF0020129026
:100E800010904DE215F8011B4CB204B94CE2252C30
:100E90000BD0E2B24046DDE92013FFF770FF9DF86A
:100EA0002100404400F0FF0835E2002081468346DF
:100EB00000BF199015F8011B4CB2302C05D14FF032
:100EC000010915F8011B4CB20EE02D2C05D14FF095
:100ED000020915F8011B4CB206E02E2C04D10120AA
:100EE0001C9015F8011B4CB218E01C9801280BD17E
:100EF000199800EB800004EB40003038C0B2199024
:100F000015F8011B4CB209E00BEB8B0004EB400021
:100F1000303800F0FF0B15F8011B4CB2302C01DB10
:100F2000392CE2DD1C98012807D11998072801DD2A
:100F3000072000E01998C0B21B906C2C01D04C2CFB
:100F400004D149F0040915F8011B4CB204B9EBE1D6
:100F50002746612C04DB7A2C02DCA7F1200047B283
:100F60004F2F78D008DC422F76D0432F64D0442F07
:100F700073D0462F72D173E0532F04D0552F6ED00B
:100F8000582F6BD124E12C98006813902C98001DE9
:100F90002C904FF0000A03E00AF1010000F0FF0A74
:100FA000139810F80A000028F6D1CDF83CA0119053
:100FB00019F0020F15D10EE020224046DDE9201382
:100FC000FFF7DDFE1198401C00B211909DF8210042
:100FD000404400F0FF085046411C01F0FF0A58450C
:100FE000EADB4046DDE92013139AFFF71AFF9DF86C
:100FF00021100F9801FB008000F0FF080F99119855
:10100000084400B211900EE020224046DDE9201392
:10101000FFF7B5FE1198401C00B211909DF8210019
:10102000404400F0FF085046411C01F0FF0A5845BB
:10103000EADB119810906EE12C9802C8CAB22C908D
:101040004046DDE92013FFF79AFE9DF82100404459
:1010500000F0FF085FE1B4E0B0E0B5E0BBE0B4E071
:101060002C98C01D20F0070001462C9000684968AC
:101070002C9A08322C92CDE90A0100221346DDE9B0
:101080000A0109F0ABFD0BD21B9840F008001B9041
:101090000022364BDDE90A0109F0DCFDCDE90A0149
:1010A000DDE90A0109F012FD00B20E9001200C905A
:1010B0001B9800F007001A9009E00C9800EB8000E4
:1010C000400000B20C901A98401EC0B21A901A98B4
:1010D000401EF2D50E9809F056FDCDE90001DDE97C
:1010E0000A2309F0EBFECDE904010C9809F04BFD51
:1010F000CDE90201DDE9042309F0ACFDCDE90601EB
:1011000009F0E4FC00B20D9000261B9800F00700E7
:101110001A901CE00D98A0B10A210D9890FBF1F2F5
:1011200001FB120047B20D9890FBF1F000B20D9058
:1011300007F1300042B23046711CCEB214A90A54F5
:1011400005E030223046711CCEB214A90A541A9818
:10115000411EC9B21A910028DCD12E223046711CE2
:10116000CEB214A90A5403E0A00000200000F0BF92
:1011700000BF0A210E9890FBF1F201FB120047B26A
:101180000E9890FBF1F000B20E9007F1300042B2E1
:101190003046711CCEB214A90A540E9808B1102E14
:1011A000E7D31B9810F0080F05D02D223046711C94
:1011B000CEB214A90A5400201C906AE002201D90AF
:1011C00017E008201D9014E000BF0A201D9010E0D9
:1011D00010201D900DE0E2B24046DDE92013FFF73C
:1011E000CEFD9DF82100404400F0FF080120109042
:1011F00091E000BF19F0040F05D02C9800682C99DD
:10120000091D2C910CE0442F05D12C9800682C99D5
:10121000091D2C9104E02C9800682C99091D2C9133
:101220001890442F08D1189810F0004F04D0189847
:101230004042189049F00809002600BF1D991898EF
:10124000B0FBF1F201FB120047B21D991898B0FBF8
:10125000F1F01890092F06DD782C01D1272000E04D
:101260000720384447B207F1300042B23046711CC3
:10127000CEB214A90A54189808B1102EDED319F072
:10128000080F05D02D223046711CCEB214A90A5485
:1012900000BFB24619F0010F01D0302000E020203D
:1012A00047B20AE0FAB24046DDE92013FFF767FDD6
:1012B0009DF82100404400F0FF0819F0020F05D10D
:1012C0005046411C01F0FF0A5845EBDB00BF701E81
:1012D000C0B2064614A90A5C4046DDE92013FFF7B8
:1012E0004EFD9DF82100404400F0FF08002EEED195
:1012F0000AE0FAB24046DDE92013FFF740FD9DF811
:101300002100404400F0FF085046411C01F0FF0A54
:101310005845EEDB00BF10991298084400B21290B5
:101320001098401C7FF4AEAD00BF23B0BDE8F08F35
:101330000FB47CB504460D4616460AA801900198E4
:101340000090324629462046099BFFF786FD7CBC6B
:101350005DF814FB2DE9F04106460F4615461C4684
:1013600015F0030006D001282AD0022808D003284F
:1013700025D114E0002239463046FFF7C0FC25E0B5
:1013800014F0010F05D0012239463046FFF7B7FCB3
:1013900004E0002239463046FFF7B1FC16E004F0C5
:1013A0000300022805D3012239463046FFF7A7FC87
:1013B00004E0002239463046FFF7A1FC06E000BFFA
:1013C000012239463046FFF79AFC00BF00BFBDE856
:1013D000F0812DE9FF4F81B081460398A0EB090011
:1013E00004B202990498401A05B2002C01DD0120D4
:1013F00000E000200121C1EB40000FFA80FA002D2F
:1014000001DD012000E000200121C1EB40000FFAC6
:1014100080FB0FFA89F702980FFA80F800200090FD
:101420000026002C01DA604200E0204604B2002DC4
:1014300001DA684200E0284605B2AC421EDD0FFA30
:1014400089F716E00098401C009041463846009B02
:101450000E9AFFF77FFF701906B2B4EB460F05DC5A
:1014600008EB0B000FFA80F8301B06B207EB0A00FE
:1014700007B203985044B842E4D11EE002980FFA34
:1014800080F816E00098401C009041463846009BCA
:101490000E9AFFF75FFF301906B2B5EB460F04DC7A
:1014A00007EB0A0007B2701B06B208EB0B000FFA3D
:1014B00080F8049858444045E4D105B0BDE8F08F69
:1014C0002DE9F84F04460D4690464FF0000B002DD5
:1014D00001DCBDE8F88F012D08D154F8049BD4F845
:1014E00000A0012251464846FFF709FC54F8049B2E
:1014F00054F804AB4FF0010B0FE040CC80CC3B46DE
:10150000324651464846CDF80080FFF762FFB146AB
:10151000BA460BF1010000F0FF0BAB45EDDB00BF5D
:10152000D7E72DE9F84F06460C4617461D46DDF86D
:1015300028804FF00009CA4618F0040F02D1B8F114
:10154000000F35D1BE4202D9B1463E464F46AC42AD
:1015500002D9A1462C464D46B8F1000F02D14FF0FA
:10156000000A01E04FF0010AAC4209D123463A4695
:1015700021463046CDF800A0FFF72BFFBDE8F88FDD
:10158000BE4208D12B46324621463046CDF800A057
:10159000FFF71FFFF2E708E023463A4621463046B0
:1015A000CDF800A0FFF715FF641CAC42F4D91FE092
:1015B0002B46324621463046CDF80080FFF709FF22
:1015C0002B463A4629463046CDF80080FFF701FF0A
:1015D0002B463A4621463846CDF80080FFF7F9FE03
:1015E00023463A4621463046CDF80080FFF7F1FE0B
:1015F00000BFC3E72DE9F84F06460F4690469946CF
:1016000000241FFA88F50320A0EB48000FFA80FAA7
:1016100065E0B9F1040F20D1012300937B19321B3F
:1016200079193019FFF7D5FE012300937B1B321B7C
:10163000791B3019FFF7CDFE012300933B19721B74
:1016400039197019FFF7C5FE012300933B1B721B6C
:10165000391B7019FFF7BDFE27E0791930194A468A
:10166000FFF74DFB7919301B4A46FFF748FB791B02
:1016700030194A46FFF743FB791B301B4A46FFF7F8
:101680003EFB391970194A46FFF739FB3919701BAF
:101690004A46FFF734FB391B70194A46FFF72FFB08
:1016A000391B701B4A46FFF72AFB601C84B2BAF153
:1016B000000F0EDB681E85B2A0000FFA80FBABEBBB
:1016C00085000FFA80FB0BF10A0050440FFA80FAF4
:1016D00005E0062000EB840050440FFA80FAA54292
:1016E00097DCBDE8F88FF0B50446059DC80800FBFF
:1016F0000320005D01F00706C6F107070126BE4082
:10170000304201D0012000E00020C0B2F0BD2DE940
:10171000F84F07460E4693469946DDE90A8A0024AB
:101720000025464400BF21E000241BE04B465A46FA
:1017300021462846CDF80080FFF7D5FF28B1311BA0
:1017400078195246FFF7DBFA0AE0BAF1000F01D12F
:10175000012300E00023DAB2311B7819FFF7CFFA3A
:10176000601C04B24445E1D3681C05B24D45DBD38F
:10177000BDE8F88F4C4800210160017100204A4902
:1017800048718871704748498979474A50541146D1
:101790008979491CC9B29171052901DB0021917138
:1017A000704741484079404A9279904201D10020E7
:1017B00070473D4840793C4A115C10464079401CD6
:1017C000C0B25071052801DB002050710846EFE7D8
:1017D000F8B5044600BF00BF206808F07AFD001D80
:1017E00000EB40004006060EC6F18000C0F347053E
:1017F000236800932DA301223821A81CFFF798FD30
:10180000012300933923AA1C19460620FFF7E1FDA6
:101810000123A919881E0093392379221946FFF75D
:10182000D8FD606850B12348007838B9852300930B
:1018300021A3012238210020FFF77AFDF8BD00B571
:1018400002461E480260FFF795FF00BD00B5034643
:101850001846FFF798FF00BD19480078704710B58B
:10186000FFF79FFF1649087014480068FFF7B0FFA4
:10187000124909688868804711480078602812D1A9
:101880000C48007878B90D480068406858B10B489A
:10189000006840680949086000200A490968087022
:1018A00008490968487010BDB00000205B2025730E
:1018B000205D0000A900002025630000AC0000208E
:1018C000A8000020240100200146FA480068407862
:1018D000081A0AD4F74800684078081AF54A1268CE
:1018E000D278904201DC012070470020FCE70146DD
:1018F000F04800688078401AEE4A12685278104426
:10190000C00070472DE9F04F8BB006468846174659
:101910004FF0000900200A9082460990834600BFDC
:101920000890464503DA0A964646DDF82880102FCF
:1019300000DD1027DF4800688670A6EB0800DD494F
:101940000968C870DB480068C078B84203DB781EBD
:10195000D8490968C870FFF77FFF8246BAF1500F77
:101960001FD1D4480068007800280ADDD2480078EA
:1019700038B9D04800680078401ECE490968087020
:1019800039E0CC4800684078002834DDCA48007847
:1019900088BBC84800684078401EC649096848703E
:1019A00029E0BAF1200F26D1C24800680078C14969
:1019B0000968C97888420ADABF48007838B9BD4852
:1019C00000680078401CBB490968087013E0B948FA
:1019D00000684178B7480068C078381A401E8142D4
:1019E00009DAB548007830B9B24800684078401C40
:1019F000B04909684870AF4800684078AD49096847
:101A00000978084400F0FF0BF000AA490968486013
:101A10004FEAC800A74909688860A648006841687D
:101A2000A44800680078A1EBC000C0B209908623EA
:101A30000093A2A3012200200999FFF779FC062E4A
:101A40000FD002239B4800930068406800F1080310
:101A500098480068406800F108017F220020FFF7E5
:101A6000B8FC6EB102239348009300688068431E5F
:101A7000904800688068411E7F220020FFF7A9FC83
:101A8000384609F097F8CDE906018A49096849689E
:101A9000884A12689268891A01F1080009F08AF8E8
:101AA000CDE90401DDE9062308F0B8FE04460D4641
:101AB0000BF1010009F067F822462B46CDE9000141
:101AC00009F0C8F8CDE904017A4909684968C81DD8
:101AD00009F070F8CDE90201DDE9042309F0FAF913
:101AE000CDE9060109F022F80890089809F062F89B
:101AF00022462B46CDE9020108F0DEFDCDE90401C6
:101B000009F014F804230093079003467F227C20F9
:101B10000899FFF706FD01236648009300684068B6
:101B2000C31D644800687F2281687C20FFF7F9FCB0
:101B30004FF000090BE0CB4501D1012000E000206F
:101B40005F4901F8090009F1010000F0FF09B945FA
:101B5000F1DD0BB0BDE8F08FF8B504460D46002668
:101B600000275548007810F0020F00D0F8BD102C67
:101B700000DBFBE72046FFF7A7FE012836D1204611
:101B8000FFF7B5FE06464E48005D01280DD1FFF770
:101B900063FE0746402F08D14A48056000204549AA
:101BA000096808704349096848702B68009346A388
:101BB000012231460620FFF7BBFB872300933FA39A
:101BC000012231467320FFF7B3FB3A4800684078A2
:101BD0003849096809780844A04207D18423009352
:101BE00036A3012238217A20FFF7A2FB00BFBDE710
:101BF0002DE9F04106460027002E01DB304600E0CB
:101C000070424FFA80F80024304D002714E0002E77
:101C100008DB00222E4B2046294609F01BF804461B
:101C20000D4607E02B4A2C4B2046294609F012F8B6
:101C300004460D46781C07B24745E8DB2046294696
:101C4000BDE8F0812DE9FF4F8FB092461CAE96E8BB
:101C5000C00300200B900A9000210C460D4609900D
:101C6000089083460790069005901348007810F07E
:101C7000020F02D013B0BDE8F08F42464B4630460B
:101C8000394608F0ABFF05D2CDE90C6746464F4612
:101C9000DDE90C890F98102800DBEBE7BAF1060F9D
:101CA00028D2DFE80AF0031B281E2124209809907F
:101CB00024E0000024010020A9000020256300008A
:101CC00091180020AC000020257300000000F03FB8
:101CD000000024409A9999999999B93F20980890C1
:101CE0000CE02098079009E02098069006E02098E4
:101CF000059003E000BFDDF880B000BF00BF0F9883
:101D0000FFF7E2FD01287ED10F98FFF7F0FD0B9061
:101D1000F9490F98085C012876D1FFF79DFD0A90DC
:101D20000A98402805D1F548007880F00100F34971
:101D30000870F248007810F0010F65D0F04890F973
:101D40000000FFF755FF04460D460A9850287CD145
:101D5000BAF1060F7AD2DFE80AF00320953C5A7AEE
:101D6000099991F9000008F00EFF22462B46CDE9B3
:101D7000000108F0A1FC32463B46CDE9020108F023
:101D80002DFF09D82046294608F0A0FE09990978B8
:101D9000084441B20998017090E00899087808F069
:101DA00009FF22462B46CDE9000108F085FC3246AA
:101DB0003B46CDE9020108F011FF09D8204629462B
:101DC00008F0B4FE089909780844C1B20898017077
:101DD00074E00799086808F0D6FE22462B46CDE944
:101DE000000108F069FC32463B46CDE9020108F0EB
:101DF000F5FE0BD82046294608F068FE07990968C9
:101E00000144079801E0CCE11EE1016056E006992B
:101E1000086809F049F922462B46CDE9000108F08F
:101E20004BFC32463B46CDE9020108F0D7FE0BD809
:101E30002046294608F00EFC049006980168049894
:101E400009F05EF90699086038E038E019E0059974
:101E500003C922462B46CDE9000108F02DFC32468D
:101E60003B46CDE9020108F0B9FE09D8059903C93E
:101E700022462B46CDE9020108F01EFC059A03C25A
:101E80001CE000BFBBF9000008F07DFE22462B4697
:101E9000CDE9000108F010FC32463B46CDE90201D5
:101EA00008F09CFE09D82046294608F00FFEBBF832
:101EB0000010084400B2ABF8000000BFE6E00A984A
:101EC000202879D1BAF1060F77D2DFE80AF0032093
:101ED000923C5777099991F9000008F054FE224688
:101EE0002B46CDE9000108F0F5FF42464B46CDE90F
:101EF000020108F0ADFF09D82046294608F0E6FDAA
:101F000009990978081A41B2099801708DE0089979
:101F1000087808F04FFE22462B46CDE9000108F074
:101F2000D9FF42464B46CDE9020108F091FF09D89E
:101F30002046294608F0FAFD08990978081AC1B226
:101F40000898017071E00799086808F01CFE2246A5
:101F50002B46CDE9000108F0BDFF42464B46CDE9D6
:101F6000020108F075FF08D82046294608F0AEFDAA
:101F700007990968091A0798016056E006990868E8
:101F800009F092F822462B46CDE9000108F0A2FFA5
:101F900042464B46CDE9020108F05AFF0BD82046D5
:101FA000294608F057FB049006980168049809F048
:101FB000D2FA0699086038E038E019E0059803C8BD
:101FC00022462B46CDE9000108F084FF42464B46ED
:101FD000CDE9020108F03CFF09D8059803C8224664
:101FE0002B46CDE9020108F075FF059A03C21CE0FB
:101FF00000BFBBF9000008F0C6FD22462B46CDE924
:10200000000108F067FF42464B46CDE9020108F0A7
:102010001FFF09D82046294608F058FDBBF80010DC
:10202000081A00B2ABF8000000BF2FE00A98302871
:102030000BD1334890F90000042827DA30480078A3
:10204000401C40B22E49087020E00A9810281DD18B
:10205000BAF1040F02D0BAF1050F0CD1284890F95B
:10206000000010F1030F11DD25480078401E40B23A
:10207000234908700AE0224890F90000002805DD95
:102080001F480078401E40B21D490870BAF1060F83
:1020900048D2DFE80AF0030E4818223B099890F96D
:1020A0000030009317A3012244200B99FFF740F959
:1020B00044E008980378009312A3012244200B996E
:1020C000FFF736F93AE00798036800930DA3012261
:1020D00044200B99FFF72CF930E00699086808F0C6
:1020E000E3FFCDE9020108A30122CDE9000144206C
:1020F0000B99FFF71DF921E091180020A90000209D
:10210000280100202564000025660000059903C908
:10211000AFF20C030122CDE9000144200B99FFF737
:1021200007F90BE000BFBBF900300093AFF22C03BE
:10213000012244200B99FFF7FBF800BF00BFFB48CA
:10214000007810F0010F11D0F9490F98085C0128B0
:102150000CD18323CDE90245049382230093F5A398
:10216000FE2200200B99FFF7E3F808E0109B009394
:10217000AFF2AC43012206200B99FFF7D9F8EF48E4
:1021800000684078ED490968097801440F98814258
:1021900007D184230093E8A3012238217A20FFF796
:1021A000C7F800BF66E50FB47CB504460025102CC7
:1021B00002DB7CBC5DF814FB2046FFF785FB0128A1
:1021C0000ED12046FFF793FB054608A80190019821
:1021D0000090012229460620079BFEF73EFE00BF25
:1021E00000BFE6E72DE9F84304460D4616460027F2
:1021F000B846B946CD48007810F0020F01D0BDE8CE
:10220000F883102C00DBFAE72046FFF75DFB01287E
:1022100034D12046FFF76BFB0746C548005D012817
:1022200007D1FFF719FB8046B8F1400F01D14FF0FD
:102230000109AFF26C530122394606200095FFF7E1
:1022400077F8BFA3012239464420FFF771F8B9F1AE
:10225000010F02D14FF00009B047B848006840783C
:10226000B649096809780844A04207D1842300933D
:10227000B1A3012238217A20FFF75AF800BFBEE748
:102280002DE9F84F04460F4615461E464FF000094B
:10229000CA46012000FA06F8A448007810F0020FA0
:1022A00001D0BDE8F88F012E01DB202E00DD0126D4
:1022B000102C00DBF5E72046FFF706FB01283BD199
:1022C0002046FFF714FB81469948005D012809D19B
:1022D000FFF7C2FA8246BAF1400F03D1286880EABC
:1022E00008002860AFF220630122494606200097CB
:1022F000FFF71EF8286810EA080F06D091A3012204
:1023000049464420FFF714F805E090A3012249460E
:102310004420FFF70DF8894800684078874909682C
:1023200009780844A04207D18423009382A30122A4
:1023300038217A20FEF7FCFF00BFB2E770B50446F3
:102340000E461546284607F0C4FFA04205D922468E
:102350002946304608F06AF803E02946304607F07F
:1023600094FF70BD2DE9FF4F85B0814692469B4694
:10237000002004900027002400250026BAF1290F30
:1023800002DA0AF1010000E029201FFA80F8B9F111
:10239000100F02DB09B0BDE8F08F4846FFF794FA52
:1023A000012878D14846FFF7A2FA0490604810F857
:1023B000090001286ED1FFF74FFA0746402F2CD1B4
:1023C0006448008818BB6448008800BB5748007800
:1023D00010F0020F0BD05548007820F0020053494E
:1023E00008705E4A59465046FFF7A8FF15E04F486F
:1023F000007840F002004D4908702921574807F045
:10240000EEFF5A4655494046FFF798FF05E047481A
:10241000007880F00400454908704448007810F0C6
:10242000020F37D04B4800884B490988132202FB22
:10243000010086B2502F3ED13C48007810F0040FC6
:102440002AD047480068017845480068001D50F8C8
:102450002100017842480068027841480068001D68
:1024600050F82200007A401E814215DA3C4800688C
:1024700001783B480068001D50F821000078401C9E
:10248000C1B237480068027835480068001D50F82E
:1024900022000170B2E0EDE12448007810F0040F52
:1024A00008D12D480088002804DD2B480088401EF4
:1024B00029490880A2E0202F54D11C48007810F050
:1024C000040F1FD026480068017825480068001DC9
:1024D00050F821000078002814DD214800680178B8
:1024E0001F480068001D50F821000078401EC1B24E
:1024F0001B48006802781A480068001D50F8220046
:1025000001707BE00948007810F0040F76D1124882
:102510000088042872DA06F1130040456EDA0E488E
:102520000088401C0C49088068E00000A9000020D9
:1025300091180020256325662563000024010020F2
:102540002D3E00005B4F4E205D0000005B4F464675
:102550005D0000002A0100202C01002068180020E6
:1025600020010020302F20D1FF48007810F0040F08
:102570000CD0FE4800680078002807DDFB480068A2
:102580000078401EF9490968087037E0F64800787D
:1025900010F0040F32D1F648008800282EDDF448F0
:1025A0000088401EF249088028E0102F26D1EE480E
:1025B000007810F0040F10D0EC4800680178EB4868
:1025C00000684078401E814207DAE84800680078D9
:1025D000401CE6490968087010E0E348007810F0F4
:1025E000040F0BD1E2480088122807DA701C40451E
:1025F00004DADF480088401CDD490880DA480078AA
:1026000010F0020F75D0FEF76CFB012300933F23FF
:102610007F2200210846FEF784FF0123009309234F
:102620007F2219460020FEF7D4FECF48007810F034
:10263000040F41D0CD4800680178CC480068001DE7
:1026400050F82100C168C94800680278C74800688E
:10265000001D50F822000078095C701EC54A115414
:10266000C24800680178C1480068001D50F8210088
:1026700043680093AFF6B013012211460220FEF723
:1026800057FEBA4800680178B8480068001D50F845
:102690002100C168B54800680278B4480068001D90
:1026A00050F8220000780B5C0093B3A3012211467E
:1026B0004020FEF73DFE1AE0B148008848B9AC481A
:1026C000008830B9AFA3012211460220FEF730FE88
:1026D0000DE0A74803885B1CA9480288521CCDE97D
:1026E0000023AAA3012211460220FEF721FE0024A6
:1026F0007DE07FE0002576E0D4B9CDB99C48008824
:1027000060B99F48008848B985230093AFF2D81379
:10271000FE2230210620FEF70BFE62E085230093A7
:10272000AFF2EC13012230210620FEF701FE58E043
:10273000132000FB0450401E86B246454FDA8C48F9
:102740000088A84227D18E480088A04223D189481A
:10275000805D78B989233022A2EBC40105EB4502E4
:102760000093062303EB4200AFF23423FE22FEF770
:10277000DFFD36E07F48835D3022A2EBC40105EB2C
:1027800045020093062303EB4200AFF25423FE22DE
:10279000FEF7CEFD25E07748805D78B989233022A9
:1027A000A2EBC40105EB45020093062303EB4200B4
:1027B000AFF27C230122FEF7BBFD12E06D48835D82
:1027C0003022A2EBC40105EB45020093062303EB84
:1027D0004200AFF29C230122FEF7AAFD01E008248B
:1027E0001525681C85B2132D86DB601C84B2052C70
:1027F00080DB2DE0069B0093AFF6343301220620E8
:102800000499FEF795FD5A4602A90720FFF796FDA9
:1028100002AB0093AFF65033012244200499FEF737
:1028200087FD584607F055FD072808D989230093EE
:10283000AFF2FC2301226D200499FEF779FD882375
:102840000093AFF20C33012273200499FEF770FD60
:10285000514800684078504909680978084448455B
:1028600008D184230093AFF23033012238217A203B
:10287000FEF75EFD00BF8DE50FB47CB504460D4646
:1028800016463948007810F0020F02D07CBC5DF883
:1028900014FB0AA801900198009032462946204670
:1028A000099BFEF7DAFA00BFF0E72DE9FF4F87B08A
:1028B00007460E4691469846DDF85CB0DDF854A018
:1028C0000020059000BF04902748007810F0020F08
:1028D00002D00BB0BDE8F08F1498504505DA14987B
:1028E0000590CDF850A0DDF814A0149916988842F0
:1028F00001DA169800E0149816901698504501DDFC
:10290000169800E0504616901499A1EB0A0008F0C2
:102910003AF9CDE902011699A1EB0A0008F033F962
:10292000CDE90001DDE9022307F078FF04460D46FA
:102930001BF0010F64D1484608F03CF922462B46B3
:10294000CDE9000108F086F9CDE9020108F0EEF8C2
:1029500004901BF0060F2FD10123009306EB080310
:1029600007EB0902314619E0A900002020010020F0
:102970002A010020681800205B202563205D0000EC
:102980002C0100204241434B000000004C3A2564DA
:1029900020433A2564000000240100203846FEF759
:1029A000C0FD0423009306EB080304983A1831464F
:1029B0003846FEF7B6FD6AE00BF00600022866D145
:1029C0000123009306EB080307EB09023146384662
:1029D000FEF7A7FD0123009306EB080304983A18BD
:1029E00031463846FEF79DFD0023009306EB0803B1
:1029F00007EB090206EB08013846FEF7EAFC46E061
:102A0000404608F0D7F822462B46CDE9000108F0F1
:102A100021F9CDE9020108F089F804901BF0060FB6
:102A200014D10123009306EB080307EB090231469A
:102A30003846FEF776FD042300930498331807EB1D
:102A4000090231463846FEF76CFD20E00BF0060027
:102A500002281CD10123009306EB080307EB0902AF
:102A600031463846FEF75DFD012300930498331884
:102A700007EB090231463846FEF753FD0023009369
:102A800006EB08033A4631463846FEF7A2FC00BF83
:102A90001FE72DE9FF4F91B080460F469146DDE9D3
:102AA0001EA600200F900E9000BF00BF00210A91CB
:102AB0000B91CDF8248008970790834606900590E7
:102AC000B448007810F0020F02D015B0BDE8F08FC6
:102AD000B24503DACDF83CA0B2460F9E484608F056
:102AE00069F8CDE90201209808F064F8CDE9000109
:102AF000DDE9022307F092FECDE90C01AAEB060006
:102B000008F041F8CDE90201149808F053F8CDE936
:102B10000001DDE9022307F081FE04460D46002096
:102B20000E903CE00AA80FC807F0C6FDCDE90A01E7
:102B3000DDE90A0107F0CAFF219951F820B00E988B
:102B400040440690B34512DBD34510DAABEB0600E8
:102B500008F019F822462B46CDE9000108F07AF872
:102B6000CDE9020107F0E2FF3844059007E0B345E4
:102B700001DA059703E014983844401E05900123BC
:102B80000093DDE90532DDE90810FEF722FC069826
:102B90000990059808900E98401C80B20E900E98EF
:102BA0004845BFD30123009314983844431E08EBD3
:102BB0000900421E39464046FEF7B3FC002E14DAE7
:102BC000704207F0E0FF22462B46CDE9000108F0F5
:102BD00041F8CDE9020107F0A9FF3844079001222E
:102BE00008F101000799FEF78AF800BF6DE72DE9AB
:102BF000FF4705460E4617469846DDE90C9A0E9C9F
:102C00006448007810F0020F01D0BDE8FF872288E9
:102C10006368CDE9009ACDE9022343463A4631463E
:102C20002846FFF736FF00BFEFE730B50A4600231E
:102C3000012100BF00BF09E0446854F82140456805
:102C400045F823405C1CA3B24C1CA1B204888C4202
:102C5000F2DC0488641E456845F8242030BD2DE967
:102C6000FF4F89B080468A4615461C46DDE917B9F4
:102C700000200890079006900590002600270AEB98
:102C800004000490002003904248007810F0020FE6
:102C900002D00DB0BDE8F08F0121199821EAD010C3
:102CA00003905D450BD34C4509D3039BCDE90093BD
:102CB0005B4651464046169AFEF729FD58E02846E5
:102CC00008F062FB0290584608F05EFB0190029902
:102CD00008F078FA0890204608F056FB0290484623
:102CE00008F052FB0190029908F06CFA0790002757
:102CF0003CE0384608F048FB0190089908F058FB82
:102D0000029008F021FB80B2069000262AE03046AF
:102D100008F03AFB0190079908F04AFB029008F08E
:102D200013FB80B205905B46CDF80090169ADDE962
:102D30000510FEF7D8FC38B1049A911B08EB070088
:102D4000039AFDF7DCFF0BE0039B0BB9012300E0C6
:102D50000023DAB2049B991B08EB0700FDF7CFFFB5
:102D6000701C86B2A642D2D3781C87B2AF42C0D3C1
:102D7000199810F0400F0BD001230AEB04000093C8
:102D8000431E08EB0500421E51464046FEF7C9FBB4
:102D900000BF7EE7A90000207CB5002514E069464D
:102DA000284601F084FE064666B9FF4850F82540E3
:102DB00044B1012C06D0D4E9020100EB810060642B
:102DC0000198A064681CC5B23F2DE8DD7CBD00BF42
:102DD00000BF02E0282001F095FFF44800780028A9
:102DE000F8D0F34800686421B0FBF1F0F0490860C6
:102DF0000846006828B90020EE490870FF2001F05D
:102E000096FE02F0C9F80446E94800686421484388
:102E1000E9490860204602F0C3F800BF02F0BCF8A0
:102E20000446E5480068E54908600020E24908607A
:102E3000204602F0B5F8E1480068DD490968B0FBBA
:102E4000F1F0C0F16400DB49087002F04CF8FFF7C4
:102E5000A3FF142001F056FFE0E700B587B003237D
:102E600000228021D648CDE90323CDE901014FF6A8
:102E7000FE7300933E2300F5FE720021AFF2B10015
:102E800001F026FC06AACFA13E2001F08FFD07B07D
:102E900000BD002400BF00BF02F07EF80446C64813
:102EA0000068401CC4490860204602F079F802F02E
:102EB00018F8F1E700B587B0032300228021C54848
:102EC000CDE90323CDE901014FF6FF7300933F23C2
:102ED00000F5FE720021AFF2450001F0F9FB06AAF1
:102EE000BDA13F2001F062FD07B000BD04E000225B
:102EF00000F8012B4A1E91B20029F8D1704770B535
:102F0000C821B948FFF7F2FF00230FE0581C85B233
:102F100003EB8300B44901EB800405EB850001EB72
:102F20008006002020706660581C83B2092BEDD308
:102F300003EB8300AC4901EB80040020207060604B
:102F40000846AA49086070BD70B54FF41371A848CF
:102F5000FFF7CCFF4FF480719348FFF7C7FF0024C1
:102F600013E0601CC5B2C4EBC40000EB4000A049F4
:102F700001EB8003C5EBC50000EB400001EB8006D0
:102F80005E619CA0D864601CC4B2062CE9D3C4EB7B
:102F9000C40000EB4000964901EB8003002058611B
:102FA00094A0D8640020944908609148934908602F
:102FB00070BD0021924A1170002004E00021914A66
:102FC0001154411CC8B20828F8D300218E4A117050
:102FD0008E4A11708E4A11608E4A1160704700202F
:102FE0008D4908608D4908708D4908708D490870B9
:102FF0008D4908708D4908606F4908606F49086005
:103000006B4908606949087089490870704710B5B4
:1030100001F058FFFFF7E3FFFFF7CBFFFFF794FF47
:10302000FFF76DFF00F03AFF01F032FAFFF742FFC1
:10303000FFF713FF01F052FF10BD7B480078012815
:1030400008D176480078FF2804D274480078401CE4
:103050007249087070477749694A1278885C6949F3
:10306000095C744A515C01EBC001684A11707047F9
:1030700010B500246C480078012830D101F08CFF95
:1030800004466648007820B164480078401E6349D1
:10309000087062480078F8B961480078E0B9FFF735
:1030A000DAFF41485949097850F821005849086029
:1030B000564800785449097888420DD05448006831
:1030C000806B401C52490968886358480068401C5E
:1030D0005649086001F07BFF204601F061FF10BDFA
:1030E00010B5002450480078012811D101F054FF98
:1030F00004464A48007840B949480078FF2804D27D
:1031000047480078401C46490870204601F048FFB7
:1031100010BD10B5002401F03FFF04463F48007881
:10312000F8B93F480078E0B9FFF795FF1E483749E6
:10313000097850F82100364908603448007832494F
:10314000097888420DD032480068806B401C3049B5
:103150000968886335480068401C3449086001F0FC
:1031600031FF204601F01CFF10BD10B500242E4891
:10317000007801286ED101F00FFF0446274800783F
:1031800070B92748007860B125480078401E24496E
:1031900008700846007828B9204601F001FF4BE08E
:1031A00055E050E04BE055E0BC1D002048010020F8
:1031B000400100203C010020580100204401002073
:1031C000BC19002075432F4F532D4949205374617A
:1031D00074000000BC1B002075432F4F532D49493C
:1031E0002049646C65000000A41800203401002010
:1031F000BC1E00203F00000068010020600100208C
:103200004D0100204E0100204B0100204C01002008
:10321000640100205C0100207801002049010020A9
:103220004A010020570100205601002030010020F3
:10323000740100200BBA0008FFF76BFF0AE020467C
:1032400001F0AEFE06E0204601F0AAFE02E02046B4
:1032500001F0A6FE10BD10B5F848007890B9FFF750
:10326000FAFEF7480078F7490870F748F4490978FA
:1032700050F82100F549086008460068F4490860E4
:1032800001F091FE10BD10B50024022001F03AFDBE
:1032900001F082FE04460020EE490860204601F05D
:1032A0007FFE142001F02EFD01F076FE0446E94871
:1032B0000068E94908600120E8490870204601F0EB
:1032C0006FFE10BD70B5002601F05CFE01F064FEDB
:1032D0000646E3480068401CE1490860304601F0BA
:1032E0005FFED6480078012857D1DE48007820B12B
:1032F000012804D0022809D103E001250BE00025B4
:1033000009E001250120D749087004E001250020CB
:10331000D449087000BF00BF05B970BDD248046829
:1033200037E001F039FE0646E06A70B3E06A401EFD
:10333000E062E06A48BB94F8300010F0370F09D023
:1033400014F8300F00F0C800207001206070A4F164
:10335000300402E0002084F8310094F8300010F0CE
:10336000080F12D104F13404A078C049097840EA6A
:103370000100BE4908702078BD49085C617840EAC8
:10338000010014F83419BA4A50546469304601F007
:1033900007FE94F832003F28C3D100BFBDE747F2D3
:1033A00017207047704710B590F8342001F10B03D7
:1033B0009B5C90F83540E443E4B2234001F10B04F8
:1033C000A35423469B5C33B98B7A90F83640E44390
:1033D000E4B223408B7210BD2DE9F04F05460F4635
:1033E00090469946A87AA3490E5C05F10B00805DD2
:1033F00011F800B00BEBC60000F0FF0A924850F83D
:103400002A40002004F12004E0602760207C6FEA5D
:103410000801C9B200EA0100207484F81190207CF0
:10342000A4F1200410F0080F0DD194F836008F4954
:10343000097808438D4908708D48805D94F83510EF
:1034400008438B49885529462046FFF7ACFF504674
:10345000BDE8F08F10B57E4A1268D0617C4A1268D0
:1034600092F8343000F10B02D25C794B1B6893F870
:1034700035301A43764B1B6893F8344000F10B0348
:103480001A55827A724B1B6893F836301A4382724F
:103490006F4A126892F83410754A525C6C4B1B6884
:1034A00093F83530DB43DBB21A40714B5A541A465D
:1034B000525C52B9664A126892F83620D243D2B2B0
:1034C0006A4B1B781A40694B1A7010BD01460022E6
:1034D0008A72002005E0002301F10B021354421C04
:1034E000D0B20828F7D3704705E011F8013B00F887
:1034F000013B531E9AB2002AF7D1704701460020C3
:1035000002E0491C421CD0B20A78002AF9D1704767
:103510002DE9FF4F81B005460F4690469946DDE9FB
:103520000EAB0020009001F037FD00905248046877
:10353000D4B304F1180454F8040C4F4908600098FF
:1035400001F02EFD44F8187CA576002020766076E8
:10355000606144F814BC44F80CAC44F8108C10982A
:1035600024F8080C24F8069C0020E077E810207767
:1035700005F00700E076217F01208840A077E17EFA
:1035800001208840607700206060E060A0602062D9
:10359000A0626062E0622063AFF2A8306063A4F1D1
:1035A00018044FF0000607E06AE0002104F1500023
:1035B00040F82610701CC6B2012EF6DB204601F042
:1035C000E0FC01F0E9FC00901F4840F8254000981D
:1035D00001F0E6FC204601F082FC01F0DDFC0090E9
:1035E0002148006860610020A0611F48006810B198
:1035F0001D48006884611C48046004F13404A0780C
:103600001A49097840EA01001849087020781849D9
:10361000085C617840EA010014F83419144A5054E7
:103620001648007800F1010014490870009801F074
:10363000B7FC002005B0BDE8F08F00005601002067
:103640004C0100204B010020BC1D00206401002023
:103650005C010020580100204001002048010020AA
:10366000780100206C010020680100204D0100203D
:103670004E0100200BBA0008600100205701002015
:10368000009801F08DFC422005B0BDE8F08F0000ED
:103690002DE9F05F05460F4691461E464FF0000BA0
:1036A0002878052804D0012030700020BDE8F09F64
:1036B00009F0800ABAF1000F04D029F080094FF018
:1036C000010801E04FF000080020307001F064FCB8
:1036D0008346B9F1000F30D0B9F1010F41D0B9F1F3
:1036E000020F03D0B9F1030F4ED113E0288900EA8D
:1036F0000704BC4208D1B8F1010F07D12889E14382
:1037000089B20840288101E070203070584601F0ED
:1037100047FC40E0288900EA070444B1B8F1010FF2
:1037200007D12889E14389B20840288101E070204F
:103730003070584601F034FC2DE02889C04380B237
:1037400000EA0704BC4206D1B8F1010F05D128896F
:103750002043288101E070203070584601F020FCA1
:1037600019E02889C04380B200EA070434B1B8F1F7
:10377000010F05D128892043288101E07020307095
:10378000584601F00DFC06E0584601F009FC002403
:103790006F20307000BF00BF204687E72DE9F04161
:1037A00006460D460027FA48007820B11020287000
:1037B0000020BDE8F08101F0EFFB0746F548046802
:1037C00084B100684068F3490860052020702681B4
:1037D00000206060F0A0E060384601F0E1FB0020CE
:1037E000287004E0384601F0DBFB72202870204688
:1037F000DFE730B501464A6808682AB9CC686060DE
:1038000028B10025456002E0106000B142608B687D
:1038100000255D6230BD2DE9F04106460F46904619
:10382000B468002004F1280460602780207A00F04A
:10383000DF00207284F80980207AA4F12804A8B956
:1038400004F13404A078D549097840EA0100D3494D
:1038500008702078D249085C617840EA010014F8C9
:103860003419CF4A50544FF0010500E0002530468E
:10387000FFF7BFFF2846BDE8F0812DE9F047044679
:10388000894615464FF0000AC148007820B10F2044
:1038900028702046BDE8F0872078052803D0012055
:1038A00028702046F6E701F077FB8246606808B191
:1038B000012700E00027B9F1000F03D0B9F1010F93
:1038C0003DD119E08FB9B4A0E06000202070B1486C
:1038D0000068606000202081AE480460504601F01E
:1038E0005FFB00202870002605E0504601F058FBE1
:1038F00049202870264629E0D4F8048006E00222F8
:1039000000214046FFF787FFD8F80080B8F1000F8C
:10391000F5D1A1A0E060002020709E4800686060A2
:10392000002020819B480460504601F039FB012FA4
:1039300001D1FFF7EEFB00202870002606E050467C
:1039400001F02EFB07202870264600BF00BF30463E
:10395000A0E72DE9F04105460E46144600278C48A5
:10396000007820B1112020700020BDE8F08101F026
:1039700013FB07462878052806D0384601F010FBCF
:10398000012020700020F0E7E86830603068FFF721
:10399000B5FD8046384601F003FB0020207040460C
:1039A000E3E72DE9F04105460E4614460027784826
:1039B000007818B112202070BDE8F08101F0ECFA17
:1039C00007462878052805D0384601F0E9FA012095
:1039D0002070F1E7EE60384601F0E2FA0020207036
:1039E00000BFE9E7F0B51446059E6E4F3F6897F8B3
:1039F000307047F02007DFF8ACC1DCF800C08CF86D
:103A000030700027DFF89CC1DCF800C08CF8317002
:103A1000644F3F68FE62634F3F6879620C828B742B
:103A2000604F3F688F6047680F6000274F60C86035
:103A3000456805B1696041605A4F3F6897F8342086
:103A4000574FBF5CDFF85CC1DCF800C09CF835C0A4
:103A50006FEA0C0C0CF0FF0C07EA0C07DFF840C112
:103A60000CF802706746BF5C7FB94E4F3F6897F80D
:103A70003670FF43FFB2DFF824C19CF800C007EAAC
:103A80000C07DFF818C18CF80070F0BD2DE9FF4F6E
:103A900087B005460F469146149E002001903C4891
:103AA000007828B10220307000200BB0BDE8F08F04
:103AB0003D48007818B10D2030700020F5E72878D7
:103AC000052803D0012030700020EEE709F0800ABD
:103AD000BAF1000F04D009F07F094FF0010801E0AE
:103AE0004FF0000801F058FA0190B9F1000F5DD0D5
:103AF000B9F1010F7FD0B9F1020F03D0B9F1030F73
:103B00006CD122E0288900EA0704BC4211D1B8F147
:103B1000010F04D12889E14389B208402881214856
:103B200000680485019801F03BFA002030702046BF
:103B3000BBE70A9B00934B463A4602A92846FFF78B
:103B400051FF019801F02CFA7FE0288900EA070470
:103B50008CB1B8F1010F04D12889E14389B2084042
:103B60002881104800680485019801F019FA0020A6
:103B70003070204699E70A9B00934B463A4602A9CB
:103B80002846FFF72FFF019801F00AFA5DE00000D8
:103B900049010020380100203F0000004D010020B5
:103BA0004E0100205C0100204A0100202889C0430A
:103BB00080B200EA0704BC4211D1B8F1010F02D172
:103BC000288920432881C94800680485019801F0AC
:103BD000E7F900203070204667E70CE02DE00A9BF3
:103BE00000934B463A4602A92846FFF7FBFE019890
:103BF00001F0D6F929E02889C04380B200EA070421
:103C00007CB1B8F1010F02D1288920432881B7483F
:103C100000680485019801F0C3F900203070204647
:103C200043E70A9B00934B463A4602A92846FFF712
:103C3000D9FE019801F0B4F907E0019801F0B0F95C
:103C400000246F20307020462FE700BFFFF761FA95
:103C500001F0A2F90190A548006890F8310020B366
:103C6000A248006890F831B00020A049096881F8A6
:103C7000310002A8FFF7BDFD00209C49096881F8CA
:103C80003000019801F08CF90024BBF1010F06D03F
:103C9000BBF1020F02D10E20307003E000BF0A20FA
:103CA000307000BF00BF2046FFE690480068048DDA
:103CB000B8F1010F20D1B9F1000F10D0B9F1010F07
:103CC0000ED0B9F1020F03D0B9F1030F0CD100E00F
:103CD00000BF2889E14389B2084028810BE000BF7A
:103CE00028892043288106E0019801F059F96F20C6
:103CF00030700020D9E600BF019801F051F9002092
:103D000030702046D1E670B5002501F045F9054632
:103D100076480068048D284601F042F9204670BDBF
:103D20002DE9FC5F0446894692461E46002000901D
:103D30002078052804D0012030700020BDE8FC9FC9
:103D400001F02AF90090BAF1000F03D0BAF1010F87
:103D50000CD106E020896FEA090189B20840208170
:103D60000BE0208940EA0900208106E0009801F07C
:103D700017F9712030700020E0E700BF4FF0000B12
:103D800065685DE0A87C50B301283DD0022802D0D0
:103D900003284CD112E02089298A00EA0107288AE9
:103DA000B8420AD1002239462846FFF734FD804642
:103DB000B8F1010F01D14FF0010B3FE02089298AB2
:103DC00000EA010757B1002239462846FFF723FDD4
:103DD0008046B8F1010F01D14FF0010B2EE0208990
:103DE000C04380B2298A00EA0107288AB8420AD172
:103DF000002239462846FFF70EFD8046B8F1010F34
:103E000001D14FF0010B19E02089C04380B2298A0B
:103E100000EA010757B1002239462846FFF7FBFCAC
:103E20008046B8F1010F01D14FF0010B06E0009878
:103E300001F0B6F86F20307000207FE700BF2D68DA
:103E4000002D9FD1009801F0ABF8BBF1010F01D11B
:103E5000FFF75FF901F0A0F8009020890190009829
:103E600001F09EF800203070019867E72DE9F041DD
:103E700004460D4600272078052804D0012028702C
:103E80000020BDE8F08101F087F807462689384612
:103E900001F086F8002028703046F2E72DE9F04165
:103EA00050211348FFF722F800250EE0681C86B267
:103EB0000F4800EB051400EB061700202070676028
:103EC000AFF22C30E060681C85B2042DEED30848B8
:103ED00000EB0514002020706060AFF24430E06019
:103EE000034804490860BDE8F08100005C0100203F
:103EF0006C190020380100202DE9F04106460D46DE
:103F00004FF000083078022804D0012028700020EB
:103F1000BDE8F08101F040F880467468E08A78B12D
:103F20002169081D20610F68E08A401EE082A168B7
:103F30002069884201D1606820610020287002E079
:103F40001F2028700027404601F02AF83846DFE796
:103F50002DE9F04106460F464FF00008FF48007873
:103F600010B10020BDE8F08101F016F88046FC4851
:103F70000568006820B1FA4800684068F8490860A0
:103F8000404601F00DF83DB301F006F88046F548D3
:103F90000468C4B100680068F2490860404600F057
:103FA000FFFF666006EB8700A060E6602661A782DF
:103FB0000020E08202202870002028816C602846C2
:103FC000FFF784FA08E0E64800686860E4480560A6
:103FD000404600F0E5FF00252846C3E72DE9F047FD
:103FE0000446894615464FF0000A2078022804D07E
:103FF000012028702046BDE8F087D848007818B125
:104000000F2028702046F6E700F0C6FF8246A07A0F
:1040100010B14FF0010801E04FF00008B9F1000FB6
:1040200003D0B9F1010F45D11FE0B8F1000F15D150
:104030006668CC4800683060CA480660002020707E
:10404000C7480068606000202081C5480460504671
:1040500000F0A6FF00202870002705E0504600F081
:104060009FFF4920287027462BE005E00223042209
:1040700000212046FFF7B0F9A07A0028F6D1666843
:10408000B84800683060B748066000202070B44827
:104090000068606000202081B1480460504600F054
:1040A0007FFFB8F1010F01D1FFF733F8002028702E
:1040B000002706E0504600F073FF072028702746CF
:1040C00000BF00BF384696E770B50546002600F0F1
:1040D00063FF06466C686068E060606820610020ED
:1040E000E082304600F05CFF002070BD2DE9F04713
:1040F0000746884615464FF000093878022804D054
:10410000012028700020BDE8F0879448007818B19D
:10411000022028700020F6E79348007818B10D209F
:1041200028700020EFE700F037FF81467C68E08AC6
:1041300098B12169081D20610E68E08A401EE08266
:10414000A1682069884201D160682061484600F07A
:1041500027FF002028703046D5E78448006890F893
:10416000300040F004008149096881F830000020E7
:104170007E49096881F831007C480068C0F82C80CD
:104180003846FFF767F9484600F00AFFFEF7C1FF1F
:1041900000F002FF81467548006890F8310020B1B8
:1041A00001280DD002280AD105E070480068066A8F
:1041B000002028700DE000260E20287009E000BFC6
:1041C00039466A480068FFF7EEF800260A20287092
:1041D00000BF00BF00206549096881F830006349CD
:1041E000096881F8310061490968C8615F49096857
:1041F0000862484600F0D4FE304684E72DE9F041DD
:1042000004460F4615464FF000082078022804D0D7
:10421000012028700020BDE8F08100F0BDFE80463E
:10422000A07A20B300267FB1012F0CD107E0022332
:10423000042200212046FFF7CFF8701CC6B2A07AF6
:104240000028F4D109E000BF022304220021204607
:10425000FFF7C2F8701CC6B200BF00BF404600F0B6
:104260009FFEFEF756FF0E2028703046D3E74046EB
:1042700000F096FE0020287000BFCCE72DE9F04149
:1042800005460E4600272878022802D00120BDE806
:10429000F08100F081FE0746A87A60B10023042275
:1042A00031462846FFF798F8384600F079FEFEF7C9
:1042B00030FF0020EBE76C68E08AA18A884204DBCB
:1042C000384600F06DFE1E20E1E7E168081DE06061
:1042D0000E60E08A401CE082D4E90210884201D1DD
:1042E0006068E060384600F05BFE0020CFE72DE913
:1042F000F04105460E4600272878022802D001200A
:10430000BDE8F08100F048FE0746A87A60B10023BE
:10431000042231462846FFF75FF8384600F040FE99
:10432000FEF7F7FE0020EBE76C68E08AA18A88427E
:1043300004DB384600F034FE1E20E1E761682069A6
:10434000884201D1A06820612069001F2061206996
:104350000660E08A401CE082384609E049010020FE
:1043600034010020700100204A0100205C0100207F
:1043700000F016FE0020C3E72DE9F04105460F4688
:1043800016464FF000082878022802D00120BDE828
:10439000F08100F001FE8046A87AE8B116F0010F26
:1043A0000AD005E00023042239462846FFF714F816
:1043B000A87A0028F6D105E00023042239462846D1
:1043C000FFF70AF8404600F0EBFD16F0040F01D1AC
:1043D000FEF79FFE0020DAE76C68E08AA18A884237
:1043E00004DB404600F0DCFD1E20D0E716F0020F93
:1043F0000BD061682069884201D1A06820612069E2
:10440000001F20612069076009E0E168081DE06085
:104410000F60D4E90210884201D16068E060E08A50
:10442000401CE082404600F0BBFD0020AFE72DE9D4
:10443000F04705460C464FF0000A2878022802D0C3
:104440000120BDE8F08700F0A7FD8246A87A20741D
:1044500005F10B0804F10809002705E018F8010B25
:1044600009F8010B781CC7B2082FF7D36E68F08AE1
:1044700018B130690068206001E000202060F08AF7
:10448000A080B08AE080504600F08AFD0020D8E786
:104490002DE9F04160211048FEF728FD00240DE0D1
:1044A000601C86B204EB44000B4901EBC00506EB2F
:1044B000460001EBC0072F60601C84B2032CEFD3D1
:1044C00004EB4400044901EBC005002028600846C5
:1044D00002490860BDE8F081082100207001002039
:1044E0002DE9FF5F814688460020009000F054FDD2
:1044F0000090F94850F8280030B1009800F050FDC5
:10450000282004B0BDE8F09FB9F1FF0F03D1F348B4
:10451000006890F83290F04850F8294024B900988B
:1045200000F03EFD2920ECE7012C04D1009800F0BA
:1045300037FD4320E5E74FEAE80608F0070003905F
:104540000120B04000F0FF0A012103988140C8B269
:1045500002900020E04941F82900084640F8284030
:1045600094F8347094F83600019094F835B0DC4833
:10457000C05D10EA0B0F1ED0D948C05D6FEA0B0179
:10458000C9B20840D649C8550846C05D38B9D548B3
:1045900000780199C943C9B20840D2490870D1488E
:1045A000007840EA0A00CF490870CD48805D029942
:1045B0000843CB498855E569F5B105F10B00C05DAD
:1045C0006FEA0B01C9B2084005F10B01C855084656
:1045D000C05D28B9A87A0199C943C9B20840A87238
:1045E000A87A40EA0A00A87205F10B00805D0299E2
:1045F000084305F10B01885504F8328FA670039823
:10460000607084F804A00298E070A4F1320400986D
:1046100000F0C6FCB4480078012801D1FEF779FD0E
:1046200000206EE72DE9FE4F06460F4690461C46D9
:104630004FF0000900F0B0FC8146AC48007828B18A
:10464000484600F0ADFC3C20BDE8FE8FA24850F883
:10465000240058BB0120A04941F82400484600F03E
:104660009FFC002342463946304600F03DFC82461E
:104670000023009301931A46514620460293FEF709
:1046800047FF054635B99848007801280CD1FEF758
:1046900040FD09E000F080FC814600208E4941F891
:1046A0002400484600F07CFC2846CDE7484600F050
:1046B00077FC2820C8E712F0010F08D012F0020F93
:1046C00005D002E0491E002308C00029FAD1704736
:1046D0002DE9FF4F85B08046894692461C46DDE9AC
:1046E00012B6169F0020039000F056FC03907F48FE
:1046F000007830B1039800F053FC3C2009B0BDE8CD
:10470000F08F754850F8240088BB0120724941F8A9
:104710002400039800F044FC3A4630461499FFF711
:10472000CAFF3B4652464946404600F0DDFB049036
:10473000DDE914125B468DE8860032462046049976
:10474000FEF7E6FE054635B96748007801280CD12A
:10475000FEF7DFFC09E000F01FFC039000205E493B
:1047600041F82400039800F01BFC2846C6E7FFE749
:10477000039800F015FC2820C0E72DE9F04105461C
:1047800000275A48007810B14020BDE8F0813F2D45
:1047900001D13E20F9E700F0FFFB0746FF2D03D1D2
:1047A0004E48006890F832504B4850F8254024B9E4
:1047B000384600F0F5FB4320E7E7012C04D13846EA
:1047C00000F0EEFB3D20E0E714F8340F4449085CAC
:1047D0006178C943C9B208402178414A505414F85D
:1047E00034091146085C40B994F83600C043C0B2A1
:1047F0003C49097808403B490870E06918B12046F7
:10480000E169FEF7D0FD666A16B13046FEF7F1FFAA
:104810000020E06284F8300084F8310034480078E9
:10482000FF2804D232480078401C314908703846CD
:1048300000F0B6FBFEF7B6FD00F0AEFB07462C48D5
:10484000007820B12A480078401E29490870204687
:1048500000F046FB27480078401E264908700020DB
:104860001D4941F82500A06930B9002061698861BF
:1048700021496069086005E0D4E905014861D4E98F
:10488000051088611D48006860611C4804601CA018
:10489000E064384600F084FB13480078012801D119
:1048A000FEF737FC002070E72DE9F04104460027B1
:1048B0003F2C02D13E20BDE8F081FF2C22D100F038
:1048C0006BFB07460548006890F83760384600F0F3
:1048D00067FB3046EFE70000BC1D00205C010020B4
:1048E0004E0100204D01002056010020490100200A
:1048F0004A010020570100206801002060010020CB
:104900003F00000000F048FB0746F74850F82450ED
:1049100025B9384600F044FB4320CCE7012D04D1F3
:10492000384600F03DFB3D20C5E73F2085F83700C5
:10493000384600F035FB0020BDE72DE9F04706467C
:104940000F4614464FF00008E848007820B11120C7
:1049500020700020BDE8F08700F01EFB8046FF2E8F
:1049600003D1E348006890F83260DF4850F82650E1
:1049700035B9404600F014FB432020700020E9E7E1
:10498000012D06D1404600F00BFB43202070002093
:10499000E0E7E86C38603868FEF7B0FD81464046D5
:1049A00000F0FEFA002020704846D3E72DE9F041E0
:1049B00006460F4614464FF00008CC48007818B160
:1049C00012202070BDE8F08100F0E6FA8046FF2E4C
:1049D00003D1C748006890F83260C34850F82650A9
:1049E0002DB9404600F0DCFA43202070EAE7012DA3
:1049F00005D1404600F0D4FA43202070E2E7EF648E
:104A0000404600F0CDFA0020207000BFDAE770B514
:104A10000546002600F0C0FA0646B34850F8254087
:104A200024B9304600F0BCFA462070BD012C04D1F8
:104A3000304600F0B5FA4320F7E794F8300010F064
:104A4000080F2FD014F8300F00F0F700207014F882
:104A5000300910BBE06AE0B904F13404A078A5493C
:104A6000097840EA0100A34908702078A249085C4F
:104A7000617840EA010014F834199F4A50543046D6
:104A800000F08EFA9D480078012809D1FEF741FB1D
:104A900006E0304600F084FA02E0304600F080FA8A
:104AA0000020C2E7304600F07BFA4420BDE72DE944
:104AB000F04707460D464FF0000A00202860686066
:104AC00000F06AFA8246FF2F03D18948006890F807
:104AD0003270854850F827402CB9504600F060FAF3
:104AE0004320BDE8F087012C04D1504600F058FA6D
:104AF0004320F6E7208A10F0010F04D1504600F061
:104B00004FFA4520EDE70026D4F80C90D4F8088041
:104B1000504600F045FA00E0761C58F8041B0029C6
:104B2000FAD02E60A9EB060068600020D9E72DE9D5
:104B3000F04105464FF0000800F02EFA8046FF2DA8
:104B400005D16B48006890F83250012608E06848AB
:104B5000006890F83200A84201D1012600E000264A
:104B6000614850F825402CB9404600F019FA482019
:104B7000BDE8F081012C04D1404600F011FA432039
:104B8000F6E794F834705C48C05D94F83510C9437A
:104B9000C9B208405849C8550846C05D40B994F8A4
:104BA0003600C043C0B253490978084051490870E3
:104BB00094F8300040F0080084F83000404600F0DF
:104BC000EFF9012E01D1FEF7A4FA0020D0E72DE97C
:104BD000F04105460E46002700F0DEF90746FF2D9E
:104BE00003D14348006890F832503F4850F82540C0
:104BF0002CB9384600F0D4F92920BDE8F081012C09
:104C000004D1384600F0CCF94320F6E7542221467F
:104C10003046FEF769FC384600F0C2F90020ECE7A8
:104C20002DE9F04704460E4617464FF0000900F004
:104C3000B3F98146FF2C02D12D48056802E02A48CD
:104C400050F8245005F1500050F82680484600F0F6
:104C5000A7F9002038704046BDE8F08770B50446DB
:104C6000002600F099F9064625480078012806DB61
:104C700096202070304600F093F9012070BD204846
:104C800005780078401C1E490870304600F088F90D
:104C9000002020702846F1E72DE9F04704460E4633
:104CA000174698464FF0000900F076F98146FF2C30
:104CB00002D10F48056802E00B4850F8245005F176
:104CC000500040F82670484600F06AF9002088F845
:104CD0000000BDE8F08710B50548006800F002F953
:104CE000FF20FFF74AFD10BDBC1D00204901002038
:104CF0005C0100204D0100204E01002056010020E3
:104D00007401002070B5054600266748007800B1A0
:104D100070BD6648007800B1FAE73DB300F03CF999
:104D200006466348006890F834406248005D604978
:104D3000096891F83510C943C9B208405D49085562
:104D40000846005D50B95A48006890F83600C043E4
:104D5000C0B259490978084057490870544800685A
:104D6000C562304600F01CF9FEF7D3F900BFCFE76B
:104D70002DE9F04104460D4616461F464A48007884
:104D800010B15520BDE8F0814848007808B13220C4
:104D9000F8E7B81CC82148434FF47A71B0FBF1F131
:104DA0004FF461606043C5EB051200EB82003044B4
:104DB00000EBC00202EB001001EBC0084046FFF719
:104DC000A1FF0020DEE770B5054600263F2D01DB80
:104DD0002A2070BD00F0E0F80646384850F825401B
:104DE00024B9304600F0DCF84320F2E7012C04D16E
:104DF000304600F0D5F84320EBE7E06A20B93046B2
:104E000000F0CEF85020E4E70020E06294F8300093
:104E100010F0370F09D014F8300F20F03700207051
:104E200001206070A4F1300402E0002084F8310019
:104E300094F8300010F0080F18D104F13404A07871
:104E40001D49097840EA01001B490870207819497A
:104E5000085C617840EA010014F83419154A50548E
:104E6000304600F09DF8FEF754F902E0304600F0BD
:104E700097F80020ADE770B5002500F08DF80546E5
:104E80000F480468284600F08BF8204670BD70B5C6
:104E90000446002500F080F80546094804602846CD
:104EA00000F07EF870BD0000490100204A0100209A
:104EB0005C0100204E0100204D010020BC1D00209F
:104EC000780100203048802102E0491E002204C001
:104ED0000029FAD12D4A2E4B1A607047704770474F
:104EE000704770477047704770B5044610464FF0E2
:104EF00080750560051F28462C60264E051F284634
:104F00002E604FF01236051F28462E604FF00336F4
:104F1000051F28462E604FF00236051F28462E60DA
:104F20007610051F28462E60051F284629604FF081
:104F30001136051F28462E604FF01036051F2846F3
:104F40002E604FF00936051F28462E604FF00836B8
:104F5000051F28462E604FF00736051F28462E6095
:104F60004FF00636051F28462E604FF00536051F08
:104F700028462E604FF00436051F28462E6070BD6F
:104F800070477047704700006821002064230020AC
:104F90007C010020D74C0008EFF3108072B67047F8
:104FA00080F3108870471D481D490170002080F370
:104FB00009881C48012101701B484FF08051016095
:104FC00062B6FEE718484FF08051016070471648FE
:104FD0004FF080510160704772B6EFF3098028B13D
:104FE000203880E8F00F11490968086000B51048C2
:104FF00080475DF804EB0F480F490A7802700B48B0
:105000000E490A680260106890E8F00F203080F3C3
:1050100009884EF0040E62B6704700BF20ED00E034
:105020000000FFFF5601002004ED00E05C010020BD
:10503000814F00084B0100204C010020640100203A
:10504000AD48806940F01800AB498861AB48006802
:1050500020F00F00AA49C1F8000C0846D0F8000C57
:1050600040F00300C1F8000C0846D0F8000C20F016
:10507000F000C1F8000C0846D0F8000C40F03000F9
:10508000C1F8000C9F48006820F470209D4908601A
:105090000846006840F4403008600846006820F484
:1050A000700008600846006840F4401008607047CF
:1050B00008210122944B1A604FF00002934BC3F871
:1050C000802115E010F0800F03D00122904B1A6070
:1050D00002E000228E4B1A6001228E4B1A604FF0C4
:1050E00000028A4BC3F880214FEA40624FEA126007
:1050F0000A00A1F10103D9B2E4D1704708210022CE
:10510000814B1A60814BC3F8802115E010F0800FAD
:1051100003D001227E4B1A6002E000227C4B1A6011
:1051200001227C4B1A604FF00002784BC3F88021BB
:105130004FEA40624FEA12600A00A1F10103D9B2BE
:10514000E4D1704730B504460D4605F1B001C8B250
:10515000FFF7D4FF210941F01000FFF7CFFF04F063
:105160000F00FFF7CBFF30BD70B50646002415E0F9
:1051700004F1B001C8B2FFF7C1FF0120FFF7BEFF85
:105180001020FFF7BBFF002504E03046FFF790FF3B
:10519000681CC5B2802DF8DB601CC4B2082CE7DBAC
:1051A00070BD30B5002415E004F1B001C8B2FFF7BE
:1051B000A5FF0120FFF7A2FF1020FFF79FFF0025AA
:1051C00004E00020FFF774FF681CC5B2802DF8DBF7
:1051D000601CC4B2082CE7DB30BD10B5FFF730FF10
:1051E00001204C4908604FF000004B49C1F8900184
:1051F0004FF00A00FBF731FD0120484908604FF0ED
:10520000AE00FFF77BFF0020FFF778FF1020FFF7CD
:1052100075FF4020FFF772FF8120FFF76FFFCF205F
:10522000FFF76CFFA120FFF769FFC820FFF766FFBB
:10523000A620FFF763FFA820FFF760FF3F20FFF7DE
:105240005DFFD320FFF75AFF0020FFF757FFD5205F
:10525000FFF754FF8020FFF751FFD920FFF74EFFE3
:10526000F120FFF74BFFDA20FFF748FF1220FFF78E
:1052700045FFDB20FFF742FF4020FFF73FFF2020E4
:10528000FFF73CFF0220FFF739FF8D20FFF736FFC5
:105290001420FFF733FFA420FFF730FFA620FFF70D
:1052A0002DFFAF20FFF72AFF0020FFF75DFF002151
:1052B0000846FFF747FF10BD70B5064600240025DD
:1052C00000BF15E004F1B001C8B2FFF717FF0020DE
:1052D000FFF714FF1020FFF711FF002505E006EB94
:1052E000C501085DFFF7E4FE6D1C802DF7DB641C33
:1052F000082CE7DB70BD000000100240000C0140EC
:10530000000001400010014094012242008021422F
:105310008481214280812142000022429001224268
:10532000FF48006810F4005F01D0012070470020A2
:10533000FCE710B5FB4B1B6843F47043FA4CC4F810
:1053400004342346D3F844344FF00003C4F8443403
:105350002346D3F844344FF00003C4F84434F34BED
:105360001B68C4F844342346D3F8443443F4005350
:10537000C4F844342346D3F8443443F40063C4F8F7
:1053800044342346D3F8443443F40073C4F844341B
:105390002346D3F8443443F08003C4F84434E34B49
:1053A0001B68C4F84434E14B1B68C4F84434DF4B39
:1053B0001B6802F0010443EA0413DC4C23604FEA4B
:1053C0009103D94CC4F84834D94BC4F84C34234623
:1053D000C3F85004D3F8443443F00103D34C2360A2
:1053E00010BD10B5D24B803B9960DB686FF30A03A8
:1053F000CF4C803CE3602346DB6800F03F0423434E
:10540000CB4C803CE3602346DB6802F0030443EAB4
:105410008413C74C803CE3602346DB68E36023468B
:10542000DB68E3602346DB6843F48063E36010BD20
:1054300030B5BF4C803C606221F07E44BC4D803D65
:10544000AC622C46E46A24F0F704EC622C46E46A71
:10545000150744EA1564B64D803DEC622C46E46ABB
:10546000EC622C46E46A03F0010544EA4504B04DC1
:10547000803DEC622C46E46A44F00104EC6230BDED
:10548000AB498039496821F0FF01A94A803A51604F
:1054900011464968014351607047A648806940F051
:1054A0002000A44988610846806940F010008861A6
:1054B0000846406940F4806048610846406940F011
:1054C000020048619C4840686FF313009A494860A5
:1054D00008464068994908439749486098480068D9
:1054E00020F47060C1F800040846D0F8000440F4CD
:1054F0003060C1F800047047014600BF8C48803816
:10550000406B10F0450FF9D040F2FF50884A803AC6
:1055100090631046406908221040C0B270472DE9E0
:10552000FC4107460E460025002400200090019013
:10553000012208211020FFF754FF1020FFF7DCFFA5
:10554000054615B12846BDE8FC817E480068010487
:1055500001223720FFF745FF3720FFF7CDFF054633
:105560000DB12846EFE7012303220821101FFFF7A2
:105570005FFF002400E0641C142CFCD300240122F3
:1055800000213320FFF72DFF3320FFF7B5FF05463D
:105590000DB12846D7E70EE065488038406B10F41F
:1055A000001F08D0624800684DF8240004F101048F
:1055B000022C00D106E05E488038406B40F22A6140
:1055C0000842E9D000BF5A488038406B10F0080FFD
:1055D00006D0082056498039886304252846B2E75A
:1055E00053488038406B10F0020F06D0022050491B
:1055F0008039886302252846A5E74D488038406BEE
:1056000010F0200F06D020204949803988630625F4
:10561000284698E746488038406B10F4007F07D052
:105620004FF40070424980398863072528468AE78D
:1056300040F2FF503E498039886300980006009987
:1056400001F47F4140EA0120009901F47F0140EA22
:105650001120009940EA11607060019800060199DC
:1056600001F47F4140EA0120019901F47F0140EA01
:105670001120019940EA11603060284663E77CB54B
:105680000546002400200090019029488038406998
:1056900010F0007F02D00E2420467CBD69462948C8
:1056A000006880B2FFF73BFF04460CB12046F4E7E8
:1056B000012D22D1019810F4802F1BD021480068C1
:1056C000010401223720FFF78CFE3720FFF714FF7B
:1056D00004460CB12046E0E7012202210620FFF734
:1056E00080FE0620FFF708FF04460CB12046D4E7F1
:1056F0002046D2E725242046CFE7019810F4803FCA
:1057000030D010480068010401223720FFF769FEFD
:105710003720FFF7F1FE0446B4B12046BDE7000094
:10572000000402400404024000000240440402401D
:10573000808001400010024000100140BBBB0B0004
:105740000014014084010020012200210620FFF7FF
:1057500048FE0620FFF7D0FE04460CB120469CE729
:1057600020469AE72524204697E770B50446002591
:10577000FF480068032802D12725284670BDFC4851
:10578000006838B1FA480068012803D0F84800687A
:10579000022839D1B4F5805F02D127252846EDE7EC
:1057A000B4F5006F19D10120FFF769FF05465DBB15
:1057B000F048406841F6FF018843EE4948600846DA
:1057C000406840F4006048600846406840F00200CD
:1057D000486008464068486016E00020FFF74FFF29
:1057E00005468DB9E348406841F6FF018843E14929
:1057F00048600846406848600846406840F002003B
:1058000048600846406848602846B7E770B50446D7
:105810000025012221460720FFF7E3FD0720FFF7BF
:105820006BFE0546284670BD2DE9F05F04464FF03B
:10583000000A0025CE48006884F85600CE4800686B
:10584000A4F85400CD480068050EA8092070C5F3DF
:105850008300607005F00300A070C8480068C0F3C2
:105860000745E570C5480068C0F307252571C348A2
:105870000068C5B26571C1484068050E2801E08026
:10588000BE484068C0F30745E08840EA1510E08054
:1058900005F00F002072B9484068C0F30725E809F9
:1058A0006072C5F38010A072C5F34010E072C5F3BA
:1058B0000010207300206073AD48006838B1AC4818
:1058C0000068012803D0AA48006803285AD1A80715
:1058D000000D2061A9484068C5B2206940EA8500F2
:1058E0002061A6488068050E206940EA9510206175
:1058F000C5F3C200207505F0070060759F488068F9
:10590000C0F307456809A075C5F38200E075A807D4
:10591000400F207699488068C0F30725207E40EA32
:10592000D51020762069401C0021C4E91201207E98
:10593000D4E91212801C012303FA00F0C317A1FB63
:1059400000CB02FB00B001FB0300C4E912C0217AC6
:105950000120884020654FF0000CD4E91231206D01
:10596000A3FB002B01FB00B003FB0C00C4E91220D9
:105970001422D4E912673046394604F04FFCC4E9DA
:10598000120137E07A480068022833D17B4840682A
:10599000C5B2A806800A206178488068050E206993
:1059A00040EA0520206175488068C0F307452069FA
:1059B0002843206171488068C0F307252069401C96
:1059C0004FF40071A0FB01014FF480620023A0FBA3
:1059D00002CB01FB02B100FB0310C4E912C050105E
:1059E00020651422D4E912894046494604F016FC89
:1059F000C4E91201C5F3801004F8190FA806400E7F
:105A000060705E488068C5B2607840EAD51060700A
:105A100005F07F00A0705948C068050EE809E070E5
:105A2000C5F341102071C5F38200607105F00300D9
:105A3000A0715248C068C0F30745A07940EA9510AC
:105A4000A071C5F34010E0710020207205F0010044
:105A500060724A48C068C0F30725E809A072C5F320
:105A60008010E072C5F340102073C5F3001060731E
:105A7000C5F38100A07305F00300E0733F48C068E0
:105A8000C5B268082074012060743D480068050EA6
:105A9000E574A4F119043A480068C0F307454FEAD9
:105AA0000520E08536480068C0F30725E08D40EA10
:105AB0000500E08532480068C5B24FEA0561216300
:105AC0002F4840684FEA1065206B40EA054121638A
:105AD0002B484068C0F30745206B40EA052121634D
:105AE00027484068C0F30725206B40EA0500206383
:105AF00023484068C5B24FF03400055520488068FF
:105B00004FEA10654FF0350005551D488068C0F319
:105B100007454FEA0561A16319488068C0F307256E
:105B2000A06B40EA0541A16315488068C5B2A06B2F
:105B300040EA0521A1631248C0684FEA1065A06BD6
:105B400040EA0500A0630E48C068C0F307454FEA6D
:105B500015104FF03C0108554FEA05704FEA105000
:105B6000E0870748C068C0F30725E08F0AE000001F
:105B70008001002000800140840100206825002071
:105B80007825002040EA0500E087FF48C068C5B2DC
:105B90004FEA55004FF0400108554FF001014FF01A
:105BA000410001555046BDE8F09F0020F74A516B77
:105BB00001E0F64A516B11F0450FFAD011F0040FD5
:105BC00004D003200422F14B9A63704711F0010FB7
:105BD00004D001200122ED4B9A63F6E740F2FF5218
:105BE000EA4B9A6300BFF0E770B503460C46002508
:105BF000E648426B01E0E548426B12F0450FFAD0EF
:105C000012F0040F05D003250420E04EB0632846AF
:105C100070BD12F0010F05D001250120DB4EB063ED
:105C20002846F5E7D9480069C0B2984202D010254D
:105C30002846EDE740F2FF50D44EB063304641694C
:105C400011F4604F03D1080C20802846E0E711F4DE
:105C5000005F01D01320DBE711F4804F01D010204A
:105C6000D6E711F4004F01D00F20D1E72846CFE747
:105C700038B5002401200090C448006810F0030FDC
:105C800002D12524204638BDC1480068042817D019
:105C9000032200210220FFF7A4FBFFF786FF044642
:105CA0000CB12046EFE7B9484069B7490860B748EA
:105CB00080694860B548C0698860B448006AC860B7
:105CC000B348006858B1B2480068012807D0B0480E
:105CD0000068062803D0AE48006802280CD10122D3
:105CE00000210320FFF77DFB69460320FFF77CFFBF
:105CF00004460CB12046C6E7A548006804281DD01C
:105D0000BDF80000A3490860BDF8000001040322AB
:105D10000920FFF766FBFFF748FF04460CB1204659
:105D2000B1E79A4840699C49086098488069486092
:105D30009648C06988609548006AC860002420467B
:105D4000A1E70020914A516B01E0904A516B11F09C
:105D5000450FFAD011F0040F04D0032004228B4B1E
:105D60009A63704740F2FF52884B9A6300BFF8E78E
:105D700010B500204FF48032844B596B02E0521E64
:105D8000824B596B11F0450F01D1002AF7D112B1A6
:105D900011F0040F04D0032004237C4CA36310BD36
:105DA00011F0400F04D000204023784CA363F6E7A5
:105DB00000BFF4E700204FF4803105E0734A526BD6
:105DC00012F0800F00D003E00A00A1F10101F5D12B
:105DD00000BF09B90320704740F2FF526B4B9A6332
:105DE00000BFF8E72DE9F041002400260025002738
:105DF000A04600206549486008464068486008465B
:105E00004068486008464068486008464068486006
:105E10000846406848600846406840F0B200486064
:105E2000032008600846406840F48070486000BF66
:105E30000CE0002211461046FFF7D3FAFFF7BAFF35
:105E4000044614B12046BDE8F08101E04A2DF0D3AC
:105E500000BF002501224FF4D5710820FFF7C1FAD9
:105E6000FFF786FF04462CB90120494908604FF02E
:105E7000804808E0012200213720FFF7B2FA3720DE
:105E8000FFF73AFB0446012200213720FFF7A9FA69
:105E90003720FFF731FB0446ACBB20E00122002194
:105EA0003720FFF79EFA3720FFF726FB04460CB198
:105EB0002046C8E7394848EA000101222920FFF7B7
:105EC00090FAFFF73EFF04460CB12046BBE72F488F
:105ED0004669012080EAD67080F001076D1C1FB969
:105EE0004FF6FF708542D9D34FF6FF70854202D33B
:105EF0001B242046A7E706F08040060027D002209A
:105F00002349086023E0FFE703202149086012E0ED
:105F1000012223491046FFF764FAFFF712FF0446F7
:105F20000CB120468FE719484669012080EAD670F7
:105F300080F001076D1C1FB94FF6FF708542E7D353
:105F40004FF6FF70854202D31B2420467BE7204694
:105F500079E710B50024FFF7A0FA00233122194693
:105F60001846FAF7BEFC00200849086048608860BF
:105F7000C86048628862C8620A4888630020C863B3
:105F8000FFF730FF04460FE0782500200080014035
:105F9000800100208401002068250020000010807E
:105FA0000080FF80FF07C0000CB1204610BDFFF746
:105FB0005FFE04460CB12046F8E70220FFF760FAC6
:105FC0001CB9F848FFF730FC044634B9F549B1F87C
:105FD00054100804FFF71AFC044624B94FF400607B
:105FE000FFF7C3FB04462046E0E770B504460025F2
:105FF000ED480068010401220D20FFF7F2F90D20A1
:10600000FFF77AFA05460DB1284670BDE7484069AA
:1060100020602846F9E708B5002000906846FFF7A1
:10602000E4FF08B1FF2008BD0098C0F34320FAE761
:1060300010B50424FFF7EFFF0446042C01D1002023
:1060400010BDFF2C01D10220FAE70120F8E7002063
:10605000D649096821F00301D44A1160704770B530
:10606000044600250026D148406910F0007F02D088
:106070000E25284670BD012240211020FFF7B1F9FE
:106080001020FFF739FA05460DB12846F2E7C64859
:106090000068010401223720FFF7A3F93720FFF73A
:1060A0002BFA05460DB12846E4E7012306224021DC
:1060B000D01FFFF7BDF9012200210D20FFF791F954
:1060C0000D20FFF719FA05460DB12846D2E70FE07B
:1060D000B648406B10F4004F0AD0002605E0B448E3
:1060E000006844F8260006F10106082EF7D3203494
:1060F000AE48406B40F22A610842E9D0AB48406BA1
:1061000010F0080F05D00820A84988630425284608
:10611000B0E7A648406B10F0020F05D00220A3495B
:10612000886302252846A5E7A048406B10F0200FA1
:1061300005D020209D498863062528469AE79B487C
:10614000406B10F4007F06D04FF4007097498863CD
:10615000072528468EE704E09448D0F880002060A8
:10616000241D9248406B10F4001FF5D140F2FF50FF
:106170008E49886328467DE770B5044600260025D1
:106180008C48FFF76CFF06460EB1304670BD89485B
:1061900000788509257087480078C0F34015657040
:1061A00084488578280260808248C57860882843C2
:1061B000608080480579280660607E48457960687F
:1061C00040EA054060607B488579606840EA0520C8
:1061D00060607848C5796068284360607548057AD2
:1061E0002572457A6572807A0509A5727148C57A6B
:1061F0002802A0816F48057BA0892843A0816D48B3
:10620000407B8508A5736B48407B00F00305E57370
:106210003046BBE700B5002100BFFFF781F830B979
:106220006548006818B9654800780028F5D06348CB
:10623000007810B16148007800BD0846FCE70146CF
:10624000002002E04910421CD0B20129FAD1704767
:106250002DE9F04107460E4614460025A8460020C9
:106260005649087054490860554908604F49C8624A
:1062700054480068022801D10402760A00231A4615
:106280001946581EFFF7D4F84848406910F0007FBF
:1062900002D00E20BDE8F081002C15DDB4F5006FB2
:1062A00012DC601E20420FD12046FFF7C8FF804657
:1062B000012221461020FFF794F81020FFF71CF967
:1062C00005461DB12846E5E72620E3E701234246BF
:1062D0002146981EFFF7ACF8012231461120FFF746
:1062E00080F81120FFF708F905460DB12846D1E7DF
:1062F0002E48C06B40F495702C49C8630846C06AAC
:1063000040F00800C862002221463846FFF711F825
:10631000FFF780FF00BFFFF78BFE0028FBD1284668
:10632000B8E72DE9F0478146884614461D46002609
:106330000027B2460020214908701F49086001204B
:106340001F49086000201949C8621E4800680228D9
:1063500002D104024FEA582800231A461946581E53
:10636000FFF766F81148406910F0007F02D00E2058
:10637000BDE8F087002C27DDB4F5006F24DC601E3B
:10638000204221D12046FFF75AFF824601222146B2
:106390001020FFF726F81020FFF7AEF80646AEB142
:1063A0003046E5E798250020840100200080014068
:1063B0008080014088250020900100208801002075
:1063C0008C010020800100202620D1E705FB04F08D
:1063D000B0F1007F02D326263046C9E705FB04F161
:1063E00001235246981EFFF723F80122414612204E
:1063F000FEF7F7FF1220FFF77FF806460EB1304692
:10640000B6E7F948C06B40F22A310843F649C86341
:106410000846C06A40F00800C86205FB04F100228B
:106420004846FEF786FFF14F00E07F1EF048006807
:1064300010F4005F01D1002FF7D10FB9042097E7C6
:1064400000BFEC48006818B9EB4800780028F8D085
:10645000E948007808B1E8480678304688E72DE931
:10646000F0410646002700240025E44800680104A6
:1064700001220D20FEF7B5FFDB48456B01E0DA484D
:10648000456B15F0450FFAD015F0040F06D0032721
:106490000420D54988633846BDE8F08115F0010F26
:1064A00005D001270120D04988633846F4E7CE485B
:1064B00005690D2D02D010273846EDE740F2FF5058
:1064C000C949886308464469C4F343203070CC4806
:1064D000044201D13846DFE714F0004F01D01C2000
:1064E000DAE714F0804F01D00920D5E714F0005FFF
:1064F00001D00A20D0E714F0805F01D00B20CBE759
:1065000014F0006F01D00C20C6E714F0806F01D0AA
:106510000D20C1E714F0807F01D00E20BCE714F4F9
:10652000000F01D00F20B7E714F4800F01D0102026
:10653000B2E714F4001F01D01120ADE714F4801F5E
:1065400001D01220A8E714F4002F01D01320A3E7F4
:1065500014F4802F01D014209EE714F4003F01D0E2
:10656000152099E714F4803F01D0162094E714F425
:10657000004F01D017208FE714F4804F01D018206E
:106580008AE714F4005F01D0192085E714F0080FA2
:1065900001D01A2080E738467EE700B5002100BF11
:1065A000FEF7BEFE30B99348006818B992480078EB
:1065B0000028F5D09048007810B18F48007800BDD1
:1065C00040F2FF50884A90630846F8E72DE9F84FFB
:1065D00007468846144600250026A946002000905C
:1065E000824685490870834908608649086017B962
:1065F0002620BDE8F88F00207B49C86200231A4698
:106600001946401EFEF714FF7748406910F0007FDE
:1066100001D00E20EDE77C480068022802D1040278
:106620004FEA5828002C15DDB4F5006F12DC601E0F
:1066300020420FD12046FFF702FE8246012221466A
:106640001020FEF7CEFE1020FEF756FF05461DB1C6
:106650002846CEE72620CCE76848006801040122DE
:106660000D20FEF7BEFE0D20FEF746FF05460DB1DC
:106670002846BEE75C48D0F814904FF0FF3611E092
:10668000761E5E480068010401220D20FEF7A9FE77
:106690000D20FEF731FF05460DB12846A9E7524807
:1066A000D0F8149019F4807F01D1002EE8D10EB9F2
:1066B00029209EE7012241461820FEF792FE18206D
:1066C000FEF71AFF05460DB1284692E700204D4916
:1066D0000860002352462146401EFEF7A9FE002016
:1066E0004549087043490860464908603E48C06B08
:1066F00040F21A3108433C49C8630122214638461A
:10670000FEF717FE3848C06A40F008003649C862F4
:10671000FFF743FF00BFFFF78BFC0028FBD140F2DF
:10672000FF50314988636846FFF799FE054603E04C
:106730006846FFF794FE05463DB99DF8000007281E
:10674000F6D09DF800000628F2D0284651E72DE942
:10675000F84F8146884614461F460025AB46002662
:1067600000200090824624490870224908600120D8
:106770002449086000201C49C86200231A461946B3
:10678000401EFEF755FE1848406910F0007F02D009
:106790000E20BDE8F88F1C480068022802D10402D0
:1067A0004FEA5828002C15DDB4F5006F12DC601E8E
:1067B00020420FD12046FFF742FD824601222146AA
:1067C0001020FEF70EFE1020FEF796FE05461DB1C6
:1067D0002846DEE72620DCE707FB04F0B0F1007F67
:1067E00014D326252846D4E700800140FFFF01008E
:1067F0000004024090010020880100208401002054
:1068000008E0FFFD8C01002080010020F9480068AD
:10681000010401223720FEF7E4FD3720FEF76CFE6D
:1068200005460DB12846B4E7012239461720FEF788
:10683000D8FD1720FEF760FE05460DB12846A8E7F3
:10684000012241461920FEF7CCFD1920FEF754FE27
:1068500005460DB128469CE707FB04F1002352468C
:10686000581EFEF7E5FD0020E3490870E349086083
:106870000120E3490860E348C06B40F21A31084345
:10688000E049C8630846C06A40F00800C86207FBD8
:1068900004F101224846FEF74CFDDB4E00E0761E77
:1068A000DA48006810F4005F01D1002EF7D11EB95C
:1068B000FFF74FFB04206CE7D34E00E0761ECF4875
:1068C000006820B9CC48007808B9002EF6D10EB97E
:1068D00004205EE7C848007810B1C748007858E740
:1068E00040F2FF50C74988636846FFF7B8FD054688
:1068F00003E06846FFF7B3FD05463DB99DF800008B
:106900000728F6D09DF800000628F2D0284640E778
:10691000BC48406B10F4405F01D00120704700205C
:10692000FCE710B50024012200210C20FEF759FDE0
:106930000C20FEF7E1FD0446204610BD2DE9F8438A
:1069400005460E4600240027A04600200090B048CF
:106950004068202111EA105F03D125242046BDE8BC
:10696000F883A8484068C0B2801CAA49B1FBF0F87F
:10697000A448406910F0007F02D00E242046EEE7C4
:10698000A5480068022801D16D0A760AA24800686D
:1069900038B1A1480068012803D09F480068022848
:1069A00017D1012229462020FEF71BFD2020FEF7EB
:1069B000A3FD04460CB12046D1E701223146212037
:1069C000FEF70FFD2120FEF797FD04460CB120468F
:1069D000C5E7012200212620FEF703FD2620FEF751
:1069E0008BFD04460CB12046B9E7002700E07F1C70
:1069F0004745FCD36846FFF732FD044603E068468E
:106A0000FFF72DFD04463CB99DF800000728F6D09D
:106A10009DF800000628F2D02046A0E710B579487E
:106A2000406B10F4807F22D07548006801280AD19D
:106A3000012200210C20FEF7D4FC0C20FEF75CFDA7
:106A40006D49087002E000206B4908704FF48070B7
:106A50006C4988630846C06B4CF23A3188436949F7
:106A6000C8630120654908606348007810BD654827
:106A7000406B10F0020F0DD0022062498863084677
:106A8000C06B4CF23A3188435E49C86302205A49D0
:106A90000870EBE75B48406B10F0080F0DD0082042
:106AA000584988630846C06B4CF23A3188435549CF
:106AB000C863042050490870D8E75248406B10F072
:106AC000200F0DD020204F4988630846C06B4CF240
:106AD0003A3188434B49C863062047490870C5E7E7
:106AE0004848406B10F0100F0DD0102045498863C6
:106AF0000846C06B4CF23A3188434249C8630520CE
:106B00003D490870B2E73F48406B10F4007F0ED05B
:106B10004FF400703B4988630846C06B4CF23A3131
:106B200088433849C8630720334908709EE700202E
:106B30009CE710B5FFF772FF10BD2DE9F041054647
:106B40000F4614464FF000083348006800B17F023A
:106B500015F0030F15D0002610E04FF400723946EF
:106B60002E48FFF775FB80464FF400722B492846EC
:106B700003F0CEFB05F50075701C86B2A642ECDB77
:106B800010E0012C06D1620239462846FFF760FB6F
:106B9000804607E023464FF4007239462846FFF747
:106BA000C0FB80464046BDE8F0812DE9F041044637
:106BB0000F4615464FF000081748006800B17F02E5
:106BC00014F0030F2CD0002610E04FF40072214681
:106BD000124803F09DFB4FF4007239460F48FFF74F
:106BE000F5FC804604F50074701C86B2AE42ECDB06
:106BF00027E000008401002088010020900100208F
:106C00008C01002000800140FFFF010000040240D1
:106C100068250020C0D401008001002068230020E6
:106C2000012D06D16A0239462046FFF7CFFC804687
:106C300007E02B464FF4007239462046FFF787FDE8
:106C400080464046BDE8F0811448806940F0040069
:106C5000124988611248006820F00F001149C1F8FC
:106C600004080846D0F8040840F003000C49086006
:106C70004FF001000C490860704700200A49086085
:106C80007047012008490860704710B5FFF7F5FF0D
:106C90000A20F9F7E2FFFFF7F4FF10BD00100240F1
:106CA0000408014000000140A00121428C48006816
:106CB000C0B270478B480068C0B270478A4800680D
:106CC000C0B2704789480068C0B270478848006801
:106CD000C0B2704787480068C0B2704786480068F5
:106CE000C0B2704785480068C0B2704784480068E9
:106CF000C0B2704710B58348806940F001008149F7
:106D000088618148006840F480707F4908607F484E
:106D1000008820F001007E49A1F8300C7A48006814
:106D200020F48070784908604FF00100F9F7CBFE3D
:106D30007448806940F01C00724988617548006899
:106D400020F47040734908600846006840F4004031
:106D500008600846006820F00F00086008460068D8
:106D600040F0080008600846006820F0F000086065
:106D70000846006840F0800008600846406820F43B
:106D8000700048600846406840F4000048600846CB
:106D9000006820F4706008600846006840F40060F5
:106DA00008605D48D0F8000C20F070405A49C1F8E6
:106DB000000C0846D0F8000C40F00040C1F8000C70
:106DC0000846D0F8000C20F07060C1F8000C0846AE
:106DD000D0F8000C40F00060C1F8000C4D4800688D
:106DE00020F070404B4908600846006840F00040C1
:106DF00008600846006820F0706008600846006877
:106E000040F00060086010BD10B5FFF773FF10BDC3
:106E100070B504462068804780F00100C5B26079F3
:106E2000684028402071657170BD10B500240020B5
:106E30003A49087000BF41E0394951F82400FFF792
:106E4000E7FF374850F824000079012805D134487D
:106E500050F82400007A31490870314850F8240075
:106E60004079012819D12E4850F82400C088401CD0
:106E70002B4951F82410C880294850F82400C088B4
:106E800064280ADD0020264951F82410C8802448CF
:106E900050F82400407A21490870214850F8240015
:106EA000407948B91E4850F82400007920B90020E4
:106EB0001B4951F82410C880601CC4B2082CBBDBED
:106EC0001648007810BD10B51648FFF7A1FF154809
:106ED000407908B9012000E00020C0B210BD0000D8
:106EE0000C012242000122420401224234012242CA
:106EF000080122421C812142188121421C012242A8
:106F0000180122420010024000700040306C004026
:106F100000600040001001400000014024020020F9
:106F2000F80100201802002000F00700F849098845
:106F30004FF6C77201EA0201F64AA2F8001C114698
:106F4000B1F8001C41EAC001A2F8001C1146B1F8DA
:106F5000001C41F04001A2F8001C704702460021CD
:106F600007E0481C81B24FF6FE70814201DB002031
:106F70007047E948008810F0020FF2D0E74802801D
:106F80004FF0000107E0481C81B24FF6FE708142CD
:106F900001DB0020ECE7E048008810F0010FF2D0A0
:106FA000DE480088C0B2E3E710B5DD48806940F0F4
:106FB0000800DB4988610846C06940F40040C861A8
:106FC000D8480068D84900EA0100D849C1F8000C47
:106FD000D4480068D64940EA0100D449C1F8000C01
:106FE0000846D0F80C0C40F03800C1F80C0CC8482A
:106FF0000088C849A1F8000C0846B0F8000C40F41D
:107000000070A1F8000C0846B0F8000C40F4807045
:10701000A1F8000C0846B0F8000C40F00400A1F8FC
:10702000000CBB480088A1F8000C0846B0F8000C22
:1070300040F00200A1F8000C0846B0F8000C40F047
:107040000100A1F8000C0846B0F8000C40F0180050
:10705000A1F8000CAE480088A1F8000C0846B0F872
:10706000000C40F04000A1F8000C4FF0FF00FFF7CB
:1070700075FF10BD10B500240020AE4908604FF028
:107080009000FFF76BFF0020FFF768FF0020FFF77D
:1070900065FF0020FFF762FFFF20FFF75FFF44EA74
:1070A0000024FF20FFF75AFF04430120A249C1F842
:1070B000BC01204610BD10B59948806940F004001D
:1070C000974988619D48006820F070409749C1F851
:1070D00004080846D0F8040840F04050C1F80408FD
:1070E0000846D0F80C0840F40040C1F80C08FFF73F
:1070F0005BFF0020FFF718FFFFF7BCFF90490880F7
:1071000010BD10B5002400208A4908604FF005002A
:10711000FFF724FFFF20FFF721FF044601208649E7
:10712000C1F8BC01204610BD10B5044600208149BD
:1071300008604FF00100FFF711FF2046FFF70EFF38
:1071400001207D49C1F8BC0110BD10B5002079496E
:1071500008604FF00600FFF701FF01207649C1F8F3
:10716000BC0110BD10B50020724908604FF004004A
:10717000FFF7F4FE01207049C1F8BC0110BD10B545
:1071800000BFFFF7BEFF00F001000128F9D010BDDD
:107190002DE9F04106460C461746FFF7D6FF0020C2
:1071A000644908604FF00200FFF7D8FEC4F30740BF
:1071B000FFF7D4FEC4F30720FFF7D0FEE0B2FFF7DD
:1071C000CDFE002504E0705DFFF7C8FE681C85B2A7
:1071D000BD42F8DB012057490860FFF7D0FFBDE84A
:1071E000F08110B504462403FFF7AFFFFFF7C7FF98
:1071F0000020504908604FF02000FFF7AFFEC4F3B5
:107200000740FFF7ABFEC4F30720FFF7A7FEE0B28D
:10721000FFF7A4FE01204849C1F8BC01FFF7AFFF0A
:1072200010BD2DE9F04107460E461446F0B2C0F5F8
:107230008075AC4200DC254612E02A4631463846CD
:10724000FFF7A6FFAC4200D10BE02F442E44601B99
:1072500084B2B4F5807F02DD4FF4807500E02546EE
:10726000EBE700BFBDE8F0812DE9F04106460C4692
:10727000174600202F4908604FF00300FFF76EFE0D
:10728000C4F30740FFF76AFEC4F30720FFF766FE6A
:10729000E0B2FFF763FE002505E0FF20FFF75EFE8A
:1072A0007055681C85B2BD42F7DB0120214908609A
:1072B000BDE8F0812DE9F05F81460F461646DFF804
:1072C00084B04FEA1738C7F30B0ACAF58054A642B8
:1072D00000DC344661E04FEA08314FF480525846F2
:1072E000FFF7C2FF002508E00AEB05001BF80000CD
:1072F000FF2800D003E0681C85B2A542F4DB00BF84
:10730000A54233DA4046FFF76CFF002524E0000079
:10731000003C004000300040083C00400C3C004075
:1073200000100240000C0140FF0F00FF0000014070
:1073300000B0BB00BC012142000021420408014012
:10734000260200203426002019F8050005EB0A016A
:107350000BF80100681C85B2A542F5DB4FEA083145
:107360004FF480525846FFF75CFF04E0224639464E
:107370004846FFF756FFA64200D10FE008F101088A
:107380004FF0000AA1442744301B86B2B6F5805F57
:1073900002DD4FF4805400E034469CE700BFBDE8B6
:1073A000F09F10B5FFF7D1FEFFF7E9FE0020164968
:1073B00008604FF0C700FFF7D1FD01201349C1F865
:1073C000BC01FFF7DCFE10BD10B500200E490860BF
:1073D0004FF0B900FFF7C2FD01200C49C1F8BC0114
:1073E0000320F9F717FC10BD10B50020064908600E
:1073F0004FF0AB00FFF7B2FD01200449C1F8BC011A
:107400000320F9F707FC10BDBC0121420000214216
:1074100070B50546002615B1012D1BD107E0FEF71A
:1074200098FD04460CB9002600E0032614E0FFF79F
:1074300042FE7A480088A0F56F41163904D14FF416
:1074400040507749088003E04FF480507449088029
:10745000002601E0012600BF00BF304670BD014696
:10746000002070472DE9F04780460E4615461C4621
:107470004FF0000914B90420BDE8F087B8F1000FFF
:1074800003D0B8F1010F1DD10CE022462946304649
:10749000FFF753FB074617B94FF0000901E04FF023
:1074A000010912E00AE069024FF400723046FFF76A
:1074B000DBFE6D1C06F50076601EC4B2002CF2D116
:1074C000A14602E04FF0010900BF00BF4846D3E7E4
:1074D0002DE9F04781460E4615461C464FF0000A3E
:1074E0004FF01F0814B90420BDE8F087B9F1000F70
:1074F00003D0B9F1010F29D118E00DE02246294649
:107500003046FFF752FB074617B94FF0000A06E076
:10751000A8F1010000F0FF08B8F1000FEED100BFA4
:10752000B8F1000F01D14FF0010A12E00AE0690240
:107530004FF400723046FFF7BDFE6D1C06F5007675
:10754000601EC4B2002CF2D1A24602E04FF0010A44
:1075500000BF00BF5046C7E7002070472DE9F04745
:107560000546884614464FF0000955BBB8F1000F98
:1075700009D0B8F1010F12D0B8F1020F06D0B8F15E
:10758000030F1AD105E04FF0000919E04FF0000990
:1075900016E02448006D20804FF0000910E02148DB
:1075A000D0F850C062460023D0E91261304602F0A4
:1075B00048FE20804FF0000902E04FF0040900BFB0
:1075C00028E0012D24D1B8F1000F09D0B8F1010F46
:1075D00014D0B8F1020F06D0B8F1030F14D108E0AF
:1075E0004FF0000913E04FF4007020804FF00009C5
:1075F0000DE0082020804FF0000908E008480088CE
:1076000020804FF0000902E04FF0040900BF01E0C4
:107610004FF001094846BDE8F0870000260200202F
:10762000280200209825002070B503460C4603E090
:1076300014F8015B03F8015B1500A2F10102F7D118
:1076400070BD30B5034601E003F8011B1400A2F140
:107650000102F9D130BDF0B503461C460D460020AD
:1076600000BF1600A2F1010207D014F8017B15F843
:1076700001CBA7EB0C063000F3D0F0BD024600E0D2
:10768000521C107810B110788842F9D110787047E8
:1076900030B502460B4600200446014621E001EBCE
:1076A0004100FB4D55F82000C8B101EB410055F8F1
:1076B00020001568A84213D101EB4100F44D05EB01
:1076C000800040689568A8420AD101EB4100F04D66
:1076D00005EB80000089D588A84201D103E0641C35
:1076E000491C0229DBD300BF022907D10CB9022BA8
:1076F00001D1002000E01220C0B230BD43B901EB3F
:107700004100E34D05EB80004089B0F5807F01D159
:10771000102000E00020C0B2EFE7002100E0491C8B
:10772000022906D201EB4100D94A52F82000002874
:10773000F5D1022901D0012070470020FCE730B5C7
:1077400002460B4600211BE001EB4100D04C54F8EF
:1077500020001468A04212D101EB4100CC4C04EB94
:10776000800040689468A04209D101EB4100C84CF8
:1077700004EB80000089D488A04200D102E0491CBB
:107780000229E1D300BF022927D1002100E0491CD2
:10779000022906D201EB4100BD4C54F8200000281C
:1077A000F5D1022901D1002030BD01EB4104B84DD3
:1077B000106845F8240001EB410405EB840490684F
:1077C0006060D08801EB410405EB84042081002037
:1077D00001EB410405EB8404608143B101EB4100FE
:1077E000AB4C04EB8000408908B10020DCE713B10A
:1077F0004FF4807006E001EB4100A54C04EB8000E3
:107800004089401C01EB4104A14D05EB84046081DB
:10781000481CC9E730B50246531E1A46022B1BD23C
:1078200002EB42039A4C04EB83035989B1F5807F44
:1078300000D1002109B14B1E99B202EB4203944CD6
:1078400004EB8303598129B9002302EB4204904DD4
:1078500045F82430002000E0022030BD10B501467C
:1078600000200DE000EB4002894B53F822208A42B1
:1078700005D1002200EB4003854C44F82320401C36
:107880000228EFD310BD70B50446207910B3256BE4
:10789000607801232A4604F13401FFF719FE08B18C
:1078A000012070BD00202071606AA84212D8E169F1
:1078B000606A0844A8420DD9E67809E0E069054409
:1078C000607801232A4604F13401FFF701FE761E99
:1078D000022EF3D20020E4E770B504460D46206B7B
:1078E000A84210D02046FFF7CEFF08B1012070BD9E
:1078F000607801232A4604F13401FFF7B3FD08B193
:107900000120F4E725630020F1E770B50446204626
:10791000FFF7B9FF0546F5BB2078032850D1607901
:10792000D0B3002020634FF40072002104F1340032
:10793000FFF787FE552184F83212AA2184F833120A
:1079400052213420015584F83510612184F8361015
:10795000412184F83710722184F8181284F8191222
:10796000412184F81A12612184F81B12206984F8DD
:107970001C022069010A84F81D122069010C84F898
:107980001E122069010E84F81F12E06884F820029C
:10799000E068010A01E01AE012E084F82112E068D0
:1079A000010C84F82212E068010E84F8231260783A
:1079B000012304F134016269FFF78AFD0020607140
:1079C000607800221146FFF7C9FD00B10125284665
:1079D00070BD0246891E9069801E884201D8002031
:1079E00070479378D06A01FB0300F9E72DE9F04175
:1079F00005460C46022C02D3A869A04202D80120F9
:107A0000BDE8F0812878012804D002282CD0032872
:107A10005CD13FE0274607EB5707686A00EB572128
:107A20002846FFF759FF00B150E0C7F3080105F100
:107A3000340010F801807F1C686A00EB572128464B
:107A4000FFF74AFF00B141E0C7F3080105F1340038
:107A5000405C48EA002814F0010F02D04FEA1810E9
:107A6000CEE7C8F30B00CBE7686A00EB1421284689
:107A7000FFF732FF00B129E040F2FF1000EA4401B5
:107A800005F134000E183078717840EA0120B7E72C
:107A900034360020686A00EBD4112846FFF71CFF3B
:107AA00000B113E040F2FF1000EA840105F1340058
:107AB0000E18F0780006B17840EA0140717840EA8B
:107AC00001203178084320F0704099E700BF4FF063
:107AD000FF3095E72DE9F04705460E461746022E82
:107AE00002D3A869B04202D84FF002088AE0287891
:107AF000012804D0022841D003287DD154E0B146AA
:107B000009EB5909686A00EB59212846FFF7E4FEA2
:107B10008046B8F1000F00D071E0C9F3080105F10B
:107B200034000C1816F0010F04D0F9B2207861F37C
:107B30001F1000E0F8B2207009F10109012028713E
:107B4000686A00EB59212846FFF7C6FE8046B8F167
:107B5000000F00D053E0C9F3080105F134000C1800
:107B600016F0010F02D0C7F3071005E0207800F0EF
:107B7000F000C7F303210843207040E0686A00EB7F
:107B800016212846FFF7A8FE8046B8F1000F00D066
:107B900035E040F2FF1000EA460105F134000C1810
:107BA0002770380A60702AE0686A00EBD611284610
:107BB000FFF792FE8046B8F1000F00D01FE040F2C0
:107BC000FF1000EA860105F134000C18E078000689
:107BD000A17840EA0140617840EA01202178084319
:107BE00000F0704007432770380A6070380CA070AE
:107BF000380EE07003E0FFE74FF0020800BF00BF5F
:107C0000012028714046BDE8F0872DE9F041044687
:107C10000E46022E02D3A069B04201D8022725E009
:107C200000271FE031462046FFF7E0FE054605B974
:107C30001BE0012D01D1022717E0681C01D10127AB
:107C400013E0002231462046FFF744FF074607B104
:107C50000BE02069401C04D02069401C20610120F9
:107C600060712E46A069B042DCD800BF3846BDE83E
:107C7000F0812DE9F04704468946B9F1000F06D19D
:107C8000E76817B1A069B84211D801270FE049464B
:107C90002046FFF7ABFE0646022E02D20120BDE8C9
:107CA000F087A069B04201D93046F8E74F463D461B
:107CB00000BF6D1CA069A84204D80225BD4201D9AD
:107CC0000020ECE729462046FFF790FE064606B95D
:107CD00009E0701C01D0012E01D13046DFE7BD4222
:107CE000E7D10020DBE700BF6FF070422946204655
:107CF000FFF7F0FE8046B8F1000F08D1B9F1000F90
:107D000005D02A4649462046FFF7E4FE8046B8F1F2
:107D1000000F09D1E5602069401C0DD02069401E8C
:107D200020610120607107E0B8F1010F02D14FF02E
:107D3000FF3000E0012005462846B0E770B5034655
:107D40000D46586A021D680A1E68B678B0FBF6F444
:107D500000BF02CA09B9002070BD8C4200D202E007
:107D6000641A121DF5E700BF10682044F4E72DE9FE
:107D7000F04104460E46E680A568012D03D0206838
:107D80008069A84202D80220BDE8F0812DB92068A0
:107D90000078032801D12068856A65B9E56020680C
:107DA0000089B04201DC0220EEE72068806A00EB27
:107DB0001610206120E020688078070112E0294633
:107DC0002068FFF713FE0546681C01D10120DBE7A0
:107DD000022D03D320688069A84201D80220D3E78E
:107DE000F01B86B2BE42EADAE56029462068FFF75A
:107DF000F0FD00EB161020612068343006F00F0112
:107E000000EB411060610020BEE72DE9F04104461F
:107E1000884600BFE088401C86B20EB1206910B9C8
:107E20000420BDE8F08116F00F0F6CD12069401CD2
:107E30002061E06828B920680089B04263DC042032
:107E4000EFE720688078401E10EA161F5BD1E168DA
:107E50002068FFF7CBFD0546012D01D80220E0E7A1
:107E6000681C01D10120DCE720688069A84244D861
:107E7000B8F1000F01D10420D3E7E1682068FFF7D3
:107E8000F8FE05460DB90720CBE7012D01D10220F0
:107E9000C7E7681C01D10120C3E72068FFF7F3FCA6
:107EA00008B10120BDE7216801F134004FF40072F0
:107EB0000021FFF7C6FB29462068FFF78AFD2168ED
:107EC000086300270FE00120216808712068FFF790
:107ED000DAFC08B10120A4E72068006B401C21688F
:107EE0000863781CC7B220688078B842EBDC206851
:107EF000006BC01B2168086300BFE560294620684D
:107F0000FFF767FD2061E6802068343006F00F013E
:107F100000EB41106061002083E72DE9F041044649
:107F20000E4600212046FFF722FF0546EDB9002747
:107F300000BF21692068FFF7CFFC054605B113E0BB
:107F400060690078E52802D06069007820B9781C63
:107F50000746B04201D107E0002701212046FFF784
:107F600054FF0546002DE4D000BF2846BDE8F0814F
:107F700010B502468C7ECB7E44EA03201378032B97
:107F800005D10C7D4B7D44EA032340EA034010BD3C
:107F900081760A0AC2760A0C02750A0E427570478B
:107FA0002DE9F041044600212046FFF7E0FE05469A
:107FB00015B12846BDE8F08100BF21692068FFF7B0
:107FC0008BFC054605B116E0666937780FB90425C4
:107FD00011E0F07A10F0080F06D10B223046A169AB
:107FE000FFF739FB00B906E000212046FFF70DFF3F
:107FF0000546002DE1D000BF2846DBE72DE9F0471C
:1080000004468946042526E021692068FFF764FCC0
:10801000054605B122E0D4F8148098F800700FB935
:1080200004251BE098F80B0000F03F06E52F0BD06D
:108030002E2F09D00F2E07D0082E01D1012000E0ED
:108040000020484500D109E000212046FFF7DDFE71
:10805000054605B102E020690028D5D100BF0DB169
:10806000002020612846BDE8F08770B50446012154
:108070002046FFF752FF054695B921692068FFF7B2
:108080002BFC054665B9202200216069FFF7D9FA6B
:108090000B22D4E90501FFF7C7FA01202168087116
:1080A000284670BD70B50446E1882046FFF75FFEA4
:1080B00005465DB921692068FFF70EFC05462DB91C
:1080C000E52061690870012021680871284670BDAB
:1080D0002DE9F35F8A46DAF8007000E07F1C3878FB
:1080E0002F28FBD038785C28F8D0009886690B22BE
:1080F00020213046FFF7A5FA0025A946AB464FF0F0
:10810000080800BF58460BF1010B3C5C202C03DD36
:108110002F2C01D05C2C00D134E02E2C01D0C14595
:108120000ED3B8F1080F01D12E2C02D00620BDE8E5
:10813000FC9F4FF008094FF00B08A806050EE1E779
:10814000802C03DB45F003050620F0E72146FFA065
:10815000FFF794FA08B10620E9E7412C04DB5A2C1A
:1081600002DC45F0020508E0612C06DB7A2C04DC19
:1081700045F00105A4F12000C4B2484609F1010907
:108180003454BFE700BF07EB0B00CAF80000202CF7
:1081900001DC042000E00020C4B2B9F1000F01D1DD
:1081A0000620C4E73078E52801D105203070B8F109
:1081B000080F01D1A806050E05F00300012801D122
:1081C00044F0100405F00C00042801D144F0080428
:1081D000F4720020ABE7F0B505460B4603F1090247
:1081E0002F69F7B36869067B00210AE0445C202C04
:1081F00000D108E0052C00D1E52400BF02F8014BB6
:10820000491C0829F2D300BF077A202F0FD02E2750
:1082100002F8017B082107E0445C202C00D105E036
:1082200000BF02F8014B491C0B29F5D300BFC77AE8
:108230001F72C77F4FEA076C877F4CEA074C477F66
:108240004CEA072790F81CC047EA0C071F6090F81B
:1082500018C0477E4CEA07279F8090F816C0C77D5C
:1082600000E002E04CEA0727DF8000271770F0BD2E
:108270002DE9F3410446019800782F2803D0019896
:1082800000785C2802D10198401C01900020A06079
:1082900001980078202807D200212046FFF767FDCB
:1082A00005460020606129E000BF01A92046FFF7D4
:1082B0000FFF054605B120E02046FFF771FE054699
:1082C000A069C67A45B1042D00D016E000BF16F0B3
:1082D000040F00D1052510E016F0040F00D00CE0CB
:1082E0006769F87A10F0100F01D1052505E03946CD
:1082F0002068FFF73DFEA060D7E700BF2846BDE835
:10830000FC8170B504460D46607801232A4604F1CD
:108310003401FFF7A7F808B1032070BD94F83212BA
:1083200094F8330241EA0020A0F52A41553901D0E2
:108330000220F2E794F86D00010694F86C0041EA1F
:10834000004194F86B0041EA002094F86A10084359
:1083500020F07F408149884201D10020DDE794F878
:108360008900010694F8880041EA004194F88700EA
:1083700041EA002094F88610084320F07F407749B6
:10838000884201D10020C8E70120C6E72DE9F74F58
:1083900088B00898006801900198007830380790FC
:1083A000079809280AD8019840783A2806D10198F8
:1083B000801C019008990198086001E00020079056
:1083C0000021099801600798022803D30B200BB005
:1083D000BDE8F08F6249079851F820400CB90C2095
:1083E000F5E709980460207878B16078FFF737F8EE
:1083F000814619F0010F08D10A9820B119F0040F35
:1084000001D00A20E3E70020E1E700202070079870
:1084100060706078FEF7FCFF814619F0010F01D013
:108420000320D4E70A9820B119F0040F01D00A20E4
:10843000CDE74FF0000A51462046FFF762FF0546A0
:1084400000BF012D27D14FF0000BBBF1000F03D06F
:10845000ABF1010000F0FF0B4FF4DF7000EB0B11EC
:1084600004F1340001EB000898F8040098B198F882
:108470000B00010698F80A0041EA004198F809004B
:1084800041EA002098F8081040EA010A51462046C7
:10849000FFF737FF0546032D01D1012097E70DB106
:1084A0000D2094E73F20015D94F8400041EA002050
:1084B000B0F5007F01D00D2089E74A20015D94F8D6
:1084C0004B0041EA002777B994F85B00010694F865
:1084D0005A0041EA004194F8590041EA002094F81A
:1084E000581040EA0107E7614420065DE670012E5E
:1084F00003D0022E01D00D2069E777434120005DB3
:108500000646A07016B1701E304201D00D205EE705
:108510004520015D94F8460041EA00202081208931
:1085200010F00F0F01D00D2051E74720015D94F8A6
:10853000480041EA002006900698D8B994F8570000
:10854000010694F8560041EA00410BE0222A2B2C48
:108550003A3B3C3D3E3F5B5D7C7F00004641540022
:108560002C02002094F8550041EA002094F85410A1
:10857000084306904220015D94F8430041EA002040
:108580000290029808B90D2021E702983844218909
:1085900000EB11100590DDE90501814201D20D20AB
:1085A00015E7DDE90510401AA178B0FBF1F0049061
:1085B000049808B90D200AE7012540F6F6710498E1
:1085C000884200D302254FF6F6710498884200D302
:1085D00003250498801CA061C4F820A00298504490
:1085E000606205985044E062032D16D1208908B1DD
:1085F0000D20ECE694F86300010694F8620041EA6D
:10860000004194F8610041EA002094F860100843AA
:10861000A062A0698000039014E0208908B90D20B1
:10862000D5E6606A3844A062022D02D1A0694000FC
:1086300007E0A06900F00100A16901EB410100EB36
:1086400051000390E169039800F2FF10B1EB502F45
:1086500001D20D20BBE64FF0FF3020610020E0602A
:10866000032D5CD1607194F8641094F8650041EAC0
:108670000020504460616078012304F13401626994
:10868000FEF7F0FEF0BB94F8321294F8330241EAA0
:108690000020A0F52A41553941D194F83700010650
:1086A00094F8360041EA004194F8350041EA002090
:1086B00094F834100843FB49884230D194F81B02E7
:1086C000010694F81A0241EA004194F8190241EABD
:1086D000002094F818120843F34988421FD194F8F7
:1086E0002302010694F8220241EA004194F8210293
:1086F00041EA002094F820120843E06094F81F0239
:10870000010600E00BE094F81E0241EA004194F8F3
:108710001D0241EA002094F81C12084320612570D4
:10872000E2480088401C80B2E0490880E0800020D8
:10873000206320712046FFF791F8002047E670B5CE
:1087400005462C464CB1206838B12068007820B12D
:108750002068C088A188884201D0092070BD2168A6
:108760004878FEF77CFE10F0010F01D00320F5E7FA
:108770000020F3E770B504460D46022C01DB0B2008
:1087800070BDCB4850F8246026B13046FFF766F83C
:10879000002030700DB100202870C54840F82450EA
:1087A0000020EDE72DE9F7438AB0054616461DB9CE
:1087B00009200DB0BDE8F0830020286006F01F06F8
:1087C00026F0010203A90BA8FFF7E0FD07467FBBD7
:1087D000CDF824D003A80B99FFF74AFD0746089C63
:1087E0006FB90CB906270AE036F0010001D001206C
:1087F00000E00020014603A8FEF74AFF074616F0F6
:108800001C0F55D077B1042F08D1FEF786FF18B1A1
:1088100003A8FFF72AFC00E01220C7B246F00806C2
:10882000089C0AE0E07A10F0110F02D0072704E05C
:1088300080E016F0040F00D00827C7BB16F0080F21
:1088400035D0FEF789FE804684F80E804FEA182066
:10885000E0734FEA184121744FEA186060740020F9
:10886000E072207700216177A177E17721460398B4
:10887000FFF77EFB814600212046FFF789FB0120A0
:1088800003990871B9F1000F11D00398D0F8308026
:1088900049460398FFF7B9F9074647B9A9F101001E
:1088A0000399C86041460398FFF716F807460EE0A3
:1088B0006FB9E07A10F0100F01D0042707E016F02E
:1088C000020F04D0E07A10F0010F00D00727B7B9EB
:1088D00016F0080F01D046F020060398006BE861FF
:1088E0002C6236F0010001D0012000E0002001469A
:1088F00003A8FEF724FFA862A86A00B90227CFB92F
:10890000AE7121460398FFF733FB2861E07F010633
:10891000A07F41EA0041607F41EA0020217F0843B7
:10892000E8600020A860A861686203982860039846
:10893000C088A88038463CE72DE9FF4F83B0044645
:1089400015469A46DDF810B00020CAF8000020460F
:10895000FFF7F5FE0290029818B1029807B0BDE843
:10896000F08FA07910F0800F01D00220F6E7A079F7
:1089700010F0010F01D10720F0E7D4E90210401AEE
:1089800000900098854200D9009DC4E0A068C00511
:10899000C00D70D120688078401EA16800EA512087
:1089A00000F0FF09B9F1000F25D1A06810B92069C6
:1089B00001900CE0606A28B12046A168FFF7BEF97B
:1089C000019004E061692068FFF710F801900198B8
:1089D000022805D2A07940F08000A0710220BDE7F6
:1089E0000198401C05D1A07940F08000A0710120C1
:1089F000B4E70198606161692068FEF7EAFF064606
:108A00002EB9A07940F08000A0710220A6E74E4464
:108A10004FEA5528B8F1000F2ED009EB0800216865
:108A20008978884203D920688078A0EB09082168FA
:108A3000487808F0FF0332465946FEF713FD28B187
:108A4000A07940F08000A071012087E7A07910F0A4
:108A5000400F0DD0A069801B404509D2A169891B38
:108A60000BEB41204FF4007204F12C01FEF7DCFD0A
:108A70004FEA482745E031E0A069B0422DD0A07907
:108A800010F0400F1AD021684878012304F12C011E
:108A9000A269FEF71DFD68B1A07940F08000A071C9
:108AA00001205BE752526141727241613402002041
:108AB0002C020020A07920F04000A07121684878A5
:108AC0000123324604F12C01FEF7CCFC28B1A07939
:108AD00040F08000A071012040E7A661A068C0F3CB
:108AE0000800C0F50077AF4200D92F46A068C0F358
:108AF000080204F12C0011183A465846FEF794FD7E
:108B000000BFBB44A0683844A060DAF800003844D5
:108B1000CAF80000ED1B002D7FF438AF00201DE7E0
:108B20002DE9FF4F83B0044615469B4604980190FB
:108B30000020CBF800002046FFF701FE02900298CB
:108B400018B1029807B0BDE8F08FA07910F0800F3F
:108B500001D00220F6E7A07910F0020F01D1072022
:108B6000F0E7E0682844E168884200D20025D5E0BB
:108B7000A068C005C00D7ED120688078401EA16825
:108B800000EA512000F0FF0ABAF1000F32D1A068CC
:108B900058B9D4F81080B8F1000F13D10021206823
:108BA000FFF767F8804620610CE0606A28B1204634
:108BB000A168FFF7C3F8804604E061692068FFF709
:108BC00058F88046B8F1000F00D1AAE0B8F1010FC3
:108BD00005D1A07940F08000A0710220B2E718F121
:108BE000010005D1A07940F08000A0710120A9E723
:108BF000C4F81480A07910F0400F12D02168487892
:108C0000012304F12C01A269FEF762FC28B1A079CE
:108C100040F08000A071012094E7A07920F040008E
:108C2000A07161692068FEF7D4FE06462EB9A079CE
:108C300040F08000A071022084E756444FEA552995
:108C4000B9F1000F30D00AEB090021688978884219
:108C500003D920688078A0EB0A092168487809F0D8
:108C6000FF0332460199FEF733FC38B1A07940F09A
:108C70008000A07100E02EE0012063E7A069801B66
:108C800048450ED2A069801B019A02EB40214FF4A7
:108C9000007204F12C00FEF7C7FCA07920F0400020
:108CA000A0714FEA49272DE0A069B04212D0D4E963
:108CB000020188420ED2216848780123324604F12D
:108CC0002C01FEF7CFFB28B1A07940F08000A07105
:108CD000012037E7A661A068C0F30800C0F500775F
:108CE000AF4200D92F46A168C1F3080204F12C015C
:108CF00050183A460199FEF797FCA07940F04000E1
:108D0000A07100BF019838440190A0683844A06069
:108D1000DBF800003844CBF80000ED1B002D7FF499
:108D200027AF00BFD4E90201884201D9A068E06002
:108D3000A07940F02000A071002003E72DE9F04168
:108D400004462046FFF7FBFC0746F7BBA07910F06E
:108D5000200F48D0A07910F0400F0FD0216848783C
:108D6000012304F12C01A269FEF7B2FB10B101202E
:108D7000BDE8F081A07920F04000A071E169206891
:108D8000FEF7AAFD074607BB256AE87A40F02000F7
:108D9000E872E0682877E068000A6877E068010C0C
:108DA000A977E068000EE87728462169FFF7F0F818
:108DB000FEF7D2FB0646AE75300AE875310C29760F
:108DC000300E68760020A87400E00CE00021E97401
:108DD000A07920F02000A07101202168087120688E
:108DE000FEF793FD07463846C2E770B504462046B5
:108DF000FFF7A4FF05461DB9A06AFEF70BFD054667
:108E00000DB900202060284670BD2DE9FE4F0446B4
:108E10000D462046FFF793FC0290029810B102988D
:108E2000BDE8FE8FA07910F0800F01D00220F7E797
:108E3000606AF0B3681C43D1D4F8248058F804ABBE
:108E40004FF0020926696EB300BF00964FF0000B89
:108E500009F1020900BF01960BF1010B31462068B0
:108E6000FEF7C4FD0646012E05D8A07940F080002B
:108E7000A0710220D4E7701C05D1A07940F08000D9
:108E8000A0710120CCE70198401C8642E3D0D14577
:108E900004D848F804BB009848F8040B206880699F
:108EA000B042D2D8606AC0F80090D14505D8002001
:108EB00000E053E0C8F800004FE0112002904CE0C1
:108EC000E068A84200D2E568A5608DB3691E20461F
:108ED000FEF734FF606161692068FEF77AFD07469E
:108EE0002FB9A07940F08000A071022098E7206897
:108EF0008078401E691E00EA51200744A068C00522
:108F0000C00D2AD0A069B84227D0A07910F0400F38
:108F100013D021684878012304F12C01A269FEF7DF
:108F2000D7FA30B1A07940F08000A071012077E736
:108F300013E0A07920F04000A07121684878012357
:108F40003A4604F12C01FEF78DFA28B1A07940F0E1
:108F50008000A071012063E7A761BFE0E068A8423C
:108F600004D2A07910F0020F00D1E568D4F808907F
:108F70004FF00008C4F8088095B320688078470255
:108F8000B9F1000F11D0681EB0FBF7F1A9F1010093
:108F9000B0FBF7F0814208D3A9F10100791E8843A4
:108FA000A060A0682D1A666918E02669AEB9002194
:108FB0002068FEF75EFE0646012E05D1A07940F03E
:108FC0008000A07102202BE7701C05D1A07940F031
:108FD0008000A071012023E72661666106B12AE0C6
:108FE00042E0A07910F0020F07D031462068FEF76A
:108FF00040FE064636B93D461FE031462068FEF782
:10900000F5FC0646701C05D1A07940F08000A071E7
:10901000012005E7012E03D920688069B04205D8F8
:10902000A07940F08000A0710220F9E66661A06896
:109030003844A060ED1BBD42D3D800BFA0682844CF
:10904000A060E805C00D0FD031462068FEF7C1FCD6
:109050008046B8F1000F05D1A07940F08000A071E2
:109060000220DDE608EB5528A068C005C00D2AD017
:10907000A069404527D0A07910F0400F12D0216898
:109080004878012304F12C01A269FEF721FA28B1E6
:10909000A07940F08000A0710120C1E6A07920F005
:1090A0004000A071216848780123424604F12C0158
:1090B000FEF7D8F928B1A07940F08000A071012016
:1090C000AEE6C4F81880D4E90201884205D9A06848
:1090D000E060A07940F02000A07100BF02989FE6F8
:1090E00073B584B0044614B9092006B070BD0022DF
:1090F000214605A8FFF74AF90546266825BB01A8C1
:10910000A06120460599FFF7B3F80546ADB960693F
:1091100058B16069C07A10F0100F05D0304661690F
:10912000FEF726FFA06000E0052535B9F088A08095
:1091300000212046FEF71BFE0546042D00D1052523
:1091400025B10020206001E0002020602846CCE707
:10915000FEB505460E462846FFF7F1FA04460CBB5D
:109160002EB900212846FEF702FE04461AE0C5F893
:1091700018D000212846FEF741FF0446042C02D1F6
:109180000020286100246CB931462846FFF723F8F7
:1091900000212846FEF739FE0446042C02D10020A7
:1091A000286100242046FEBD33B58BB00D46002259
:1091B00004A90BA8FFF7EAF804467CB901A80A90B5
:1091C00004A80B99FFF754F804463CB9099820B15C
:1091D000294604A8FEF7FFFF00E0062420460DB054
:1091E00030BD2DE9F74F82B08B46002202A80499CA
:1091F000FFF7CCF80190049804680198F0BBA069CF
:10920000801E2169814203D82069CBF8000067E005
:1092100094F800A00026BAF1010F1CD1022700BF6C
:1092200039462046FEF7E2FB804618F1010002D1E4
:10923000012001900EE0B8F1010F02D1022001904F
:1092400008E0B8F1000F00D1761C781C0746A16930
:109250008842E5D33CE0A769606A00904FF00009BE
:10926000002500BFB9F1000F10D10098421C014643
:1092700020460092FEF730FB019000E030E00198BC
:1092800000B124E004F134054FF40079BAF1020F83
:1092900009D12878697850EA012000D1761CAD1CEC
:1092A000A9F1020910E0E8780006A97840EA014037
:1092B000697840EA01202978084330F0704000D1F5
:1092C000761C2D1DA9F10409781E0700CAD100BF24
:1092D0002661BAF1030F01D101206071CBF8006063
:1092E000019805B0BDE8F08F70B504462046FFF741
:1092F00026FA054655B9A07910F0800F01D0022555
:1093000004E0A07910F0020F00D10725B5BBD4E925
:10931000021088422DD9A068E060A07940F02000BA
:10932000A071A06838B921692068FEF76EFC054677
:10933000002020611DE061692068FEF757FB0646AA
:109340000025701C00D10125012E00D1022585B910
:1093500020688069B0420CD96FF070426169206862
:10936000FEF7B8FB054625B931462068FEF74DFCEF
:1093700005461DB1A07940F08000A071284670BD5F
:1093800071B591B001220AA911A8FEF7FFFF0446AA
:10939000F4BBCDF840D00AA81199FEF769FF044646
:1093A00000BF24B902210AA8FEF772F904467CBB6B
:1093B0000F9E0EB9062404E0F07A10F0010F00D0E1
:1093C000072431460A98FEF7D3FD0546ECB9F07A3A
:1093D00010F0100F19D0022D01D2022415E01C222A
:1093E0000AA903A8FEF720F90595022103A8FEF7B4
:1093F000BEFC04464CB9002103A8FEF7FFFD04465D
:1094000004B90724042C00D100240CB90AA800E0F8
:109410000EE0FEF747FE044654B925B129460A98E6
:10942000FEF7F3FB04461CB90A98FEF76EFA0446F1
:10943000204612B070BD2DE9F1478BB0FEF78CF8D5
:109440000646012204A90BA8FEF7A0FF0546F5BBBE
:1094500001A80A9004A80B99FEF70AFF054605B972
:10946000082500BF042D32D100210498FEF701FC2D
:109470000746002507B90725012F00D10225781CD2
:1094800000D101251DB90498FEF7FDF90546F5BB8D
:1094900039460498FEF79DFA8146049800F1340499
:1094A0004FF4007200212046FEF7CBF80B2220215A
:1094B0002046FEF7C6F82E2020701020E072A67518
:1094C000300AE075310C2176300E607600E05FE006
:1094D00039462046FEF75CFD2022214604F120009B
:1094E000FEF7A2F82E2084F82100DDF818A00498D9
:1094F0000078032805D10498806A504501D14FF0C7
:10950000000A514604F12000FEF742FD00E01FE092
:10951000049890F8028017E00498C0F8309009F1A0
:1095200001090120049908710498FEF7ACF9054679
:1095300005B10CE04FF4007200212046FEF781F8DF
:10954000A8F1010000F0FF08B8F1000FE4D100BF5E
:109550001DB904A8FEF789FD054625B139460498D2
:10956000FEF753FB14E0099C1020E072A675300A48
:10957000E075310C2176300E607639462046FEF7D4
:1095800007FD0120049908710498FEF7BEF905460D
:1095900028460CB0BDE8F087F7B58AB00F461446F0
:1095A000012203A90AA8FEF7F1FE0646EEB9CDF89E
:1095B00024D003A80A99FEF75BFE064600BFA6B9B1
:1095C000089D0DB9062610E004F0270407EA040000
:1095D000E97AE243D2B211400843E87201200399CC
:1095E00008710398FEF791F9064630460DB0F0BDBC
:1095F00073B58AB00D46012203A90AA8FEF7C6FE7C
:109600000646EEB9CDF824D003A80A99FEF730FE3D
:10961000064600BFA6B9089C0CB9062610E0E888EB
:10962000A075E8880012E075A8882076A888001246
:1096300060760120039908710398FEF766F90646E3
:1096400030460CB070BD2DE9F34198B00F460122B1
:1096500011A918A8FEF79AFE0446F4BB11980A90C7
:1096600001A8179011A81899FEF702FE044600BF42
:1096700024B9022111A8FEF70BF804466CBB16981A
:1096800008B904246AE0169800F10B01152204A819
:10969000FDF7CAFF1C2211A90AA8FDF7C5FF39462C
:1096A0000AA8FEF7E5FD044604B90824042C55D1A8
:1096B0000AA8FEF7DAFC04467CB90F9D13220DF1CF
:1096C000120105F10D00FDF7AFFF9DF8100040F00D
:1096D0002000E8720120119900E03FE008710C9928
:1096E0001398884230D0E87A10F0100F2CD0294619
:1096F0001198FEF73DFC804641461198FEF769F946
:1097000006460EB902241FE031461198FEF7E4F830
:109710000446119800F15405B4B968782E2813D185
:1097200011980078032806D111990C98896A88420B
:1097300001D1002000E00C98064631462846FEF78D
:1097400027FC01201199087144B911A8FEF7AAFC61
:1097500004461CB91198FEF7D8F8044620461AB002
:10976000BDE8F0812DE9F74F8EB092460E980228A1
:1097700003DB0B2011B0BDE8F08F0F98012801DD4D
:109780001320F7E7AAF1010010EA0A0F01D0132015
:10979000F0E7FF490E9851F820B0BBF1000F01D15E
:1097A0000C20E7E700208BF800000E980B900020BB
:1097B0000A900B98FDF72CFE0090009810F0010F16
:1097C00001D00320D6E7009810F0040F01D00A2042
:1097D000D0E700BF03AA01210B98FDF7BFFE10B927
:1097E0000398802801D20120C4E70F9808B1002017
:1097F00000E03F2081460398A0EB09000390BAF1F6
:10980000000F13D14FF4FA610398B0FBF1F0099007
:109810004FF0000801E008F10108DE4830F81810A8
:1098200009988142F7D8DC4830F818A04FEA5A2A44
:10983000BAF1000F01D14FF0010ABAF1800F01D93E
:109840004FF0800A0398B0FBFAF7012540F6F67056
:10985000874200D302254FF6F670874200D30325D6
:10986000032D0AD1082000EB870000F2FF10460A02
:10987000202002900020019011E0012D05D107EB7E
:109880004700401C4008C01C01E07800001D06464F
:1098900006F2FF10460A0120029020200190029853
:1098A000484406900698304405900199059808446C
:1098B000049004985044A0EB09000399884201D910
:1098C0000E2057E708AA03210B98FDF747FE28B999
:1098D000089818B10898B0F5004F01D901200890F8
:1098E000089904980844401E491E88430890089926
:1098F0000498081A0890032D08D108990298084482
:109900000290089906980844069001E008980644D9
:10991000DDE90201081A811B0198081AB0FBFAF769
:10992000022D03D140F6F670874205D3032D05D1F1
:109930004FF6F670874201D20E201BE7012D02D0B0
:10994000022D0DD102E001200C900CE00398B0F53F
:10995000803F01D2042000E00620C0B20C9002E05B
:109960000C200C9000BF00BF00BF0F9810B1F0207A
:109970000D9044E04FF4007200210BF13400FDF72C
:1099800060FE0BF5F97401206070A0700020E0709B
:109990000C982071FE206071039848443F21B0FB71
:1099A000F1F0FF21B0FBF1F008903F21089841EA67
:1099B0009000A0710898E0713F2020720021617230
:1099C000A172E172039820730398000A60730398F0
:1099D000010CA1730398000EE07355218BF832122D
:1099E000AA218BF83312012300220BF134010B98CA
:1099F000FDF76EFD08B10120BCE6F8200D900BF1DB
:109A000034044FF4007200212046FDF71AFE0B22A9
:109A100062A12046FDF708FE4FF4007884F80B8021
:109A20004FEA2820207384F80DA00298A0730298B2
:109A3000000AE07301202074032D01D1002001E011
:109A40004FF40070804684F811804FEA1820A0740B
:109A50000398B0F5803F05D20398E0740398000A9C
:109A6000207510E0039884F820000398C0F30720C5
:109A7000212108550398C0F307412220015503987E
:109A8000000E232108550D9860753F202076002197
:109A90006176FF20A076E17684F81C904FEA1920C9
:109AA00060774FEA1941A1774FEA1960E077FDF737
:109AB00053FD0890032D3ED1089884F84300089880
:109AC000C0F30720442108550898C0F307414520FA
:109AD00001550898000E4621085584F82460C6F305
:109AE000072025210855C6F3074126200155300ED1
:109AF00027210855022084F82C0000212D20015533
:109B00002E2001552F200155012084F830003120EE
:109B10000155062084F8320033200155802084F856
:109B20004000292084F8420013221FA104F14700BD
:109B3000FDF77AFD1FE0089884F827000898C0F325
:109B40000720282108550898C0F30741292001550E
:109B50000898000E2A210855A675300AE075802065
:109B600084F82400292084F82600132213A104F18C
:109B70002B00FDF759FD552084F8FE01AA2140F283
:109B8000FF10015501234A4621460B9820E00000B2
:109B90002C0200200CBB000822BB0008EBFE904DFD
:109BA00053444F53352E30004E4F204E414D4520EB
:109BB0002020204641543332202020004E4F204E9A
:109BC000414D4520202020464154202020202000C7
:109BD000FDF77EFC08B10120CCE5032D06D1012361
:109BE00009F1060221460B98FDF772FC06980790D2
:109BF0004FF0000861E04FF4007200212046FDF7AD
:109C000020FD0D980890032D14D0012D01D1FF489F
:109C100001E06FF0FF000899084308900898207051
:109C20000898000A60700898000CA0700898000E50
:109C3000E07019E0089860F0FF0008900898207024
:109C40000898000A60700898000CA0700898000E30
:109C5000E070FF202071FF216171A171E17120721C
:109C60006172A1720F21E1720798411C0246012323
:109C7000079121460B98FDF72BFC08B1012079E5EF
:109C80004FF4007200212046FDF7DBFC0120089014
:109C90000EE00798411C02460123079121460B98CC
:109CA000FDF716FC08B1012064E50898401C0890F7
:109CB0000898B042EDD308F10108B8F1000F9AD02E
:109CC000032D01D1504600E00198804600BF07985F
:109CD000411C02460123079121460B98FDF7F8FB32
:109CE00008B1012046E5A8F101005FEA0008EED1C5
:109CF000032D46D15220207060706120A070412059
:109D0000E070722084F8E401722140F2E510015500
:109D10004121401C01556121401C0155781E84F8E9
:109D2000E801C0F3072040F2E9110855781EC0F39E
:109D300007414FF4F5700155781E000E40F2EB110B
:109D40000855022084F8EC01002140F2ED10015585
:109D5000401C0155401C0155552084F8FE01AA21E4
:109D600040F2FF100155012309F1010221460B9831
:109D7000FDF7AEFB012309F1070221460B98FDF721
:109D8000A7FB002211460B98FDF7E8FB08B1012064
:109D900000E00020C0B2EDE42DE9FC47074688460C
:109DA000914600243E4611E06B46012201A9484637
:109DB000FEF7C2FD0098012800D00BE09DF804508A
:109DC00006F8015B641C0A2D00D103E0A8F1010034
:109DD000A042E9DC00BF0020307014B13846BDE875
:109DE000FC870020FBE77CB504460D468DF800405B
:109DF000012601AB324669462846FEF791FE0198DE
:109E0000B04200D17CBD4FF0FF30FBE770B5044697
:109E10000E46002509E020783146FFF7E4FF401C9C
:109E200001D1401E70BD641C6D1C20780028F2D149
:109E30002846F7E70FB42DE9F04F89B014A8089031
:109E40000020824600903DE1139810F8014B1390DA
:109E500004B93BE1252C0AD020461299FFF7C3FF35
:109E600082461AF1010001D04FF0010A27E10020DB
:109E700007468346139810F8014B1390302C05D1F8
:109E80000127139810F8014B139006E02D2C04D1F4
:109E90000227139810F8014B139009E00BEB8B008D
:109EA00004EB4000A0F1300B139810F8014B139015
:109EB000302C01DB392CF1DD6C2C01D04C2C05D180
:109EC00047F00407139810F8014B139004B9FDE014
:109ED0002546612D04DB7A2D02DCA5F12000C5B2F8
:109EE0004F2D51D006DC422D4BD0432D40D0442D78
:109EF00054D14CE0532D04D0552D49D0582D4DD17F
:109F000049E00898006801900898001D08904FF0FB
:109F1000000901E009F10109019810F80900002881
:109F2000F8D1002617F0020F0BD105E0202012997E
:109F3000FFF759FF82460644484609F10109584592
:109F4000F4D312990198FFF761FF8246064405E0B9
:109F500020201299FFF747FF82460644484609F140
:109F600001095845F4D31AF1010000D0B246A6E029
:109F7000089904C9D0B208911299FFF734FF8246BC
:109F80009DE0022007900FE0082007900CE000BF42
:109F90000A20079008E01020079005E0204612995B
:109FA000FFF721FF82468AE000BF17F0040F05D0BB
:109FB000089800680899091D08910CE0442D05D106
:109FC000089800680899091D089104E0089800683D
:109FD0000899091D08910690442D08D1069810F0A3
:109FE000004F04D006984042069047F008074FF013
:109FF000000800BFDDE90601B0FBF1F201FB120031
:10A00000C5B2DDE90601B0FBF1F001E000FFFF00A1
:10A010000690092D06DD782C01D1272000E00720CD
:10A020002844C5B205F13000C2B2404608F101082B
:10A0300002A90A54069810B1B8F1100FDAD317F03C
:10A04000080F05D02D22404608F1010802A90A5444
:10A05000C14617F0010F01D0302000E02020C5B22A
:10A06000002605E028461299FFF7BDFE8246064409
:10A0700017F0020F04D1484609F101095845F1D300
:10A0800000BFA8F10101884602AA505C1299FFF7AF
:10A09000AAFE82460644B8F1000FF2D105E0202066
:10A0A0001299FFF7A0FE82460644484609F10109CD
:10A0B0005845F4D31AF1010000D0B24600BF009811
:10A0C000504400901AF101007FF4BEAE00BF1AF1B7
:10A0D000010005D1504609B0BDE8F00F5DF814FB52
:10A0E0000098F8E736490143364A1160704770B569
:10A0F000002100230F22C4784CB3324C246804F4AE
:10A10000E064C4F5E0644FEA1421C1F1040322FACB
:10A1100001F2447804FA03F1847804EA020444EA80
:10A1200001014FEA0111284C0678A155047804F08A
:10A130001F054FF0010404FA05F405784FEA651590
:10A140004FF0E02606EB8505C5F8004109E00478EC
:10A1500004F01F050124AC401C4D0678761145F82B
:10A16000264070BD1A4A0A4002431A4B1A607047D3
:10A1700041B1194A126842EA00024FF0E023C3F8E5
:10A18000102D07E0144A126822EA00024FF0E02383
:10A19000C3F8102D7047042808D14FF0E021096959
:10A1A00041F004014FF0E022116107E04FF0E0219F
:10A1B000096921F004014FF0E022116170470000AD
:10A1C0000000FA050CED00E000E400E080E100E0B2
:10A1D00080FFFF1F08ED00E010ED00E00948804718
:10A1E00009480047FEE7FEE7FEE7FEE7FEE7FEE779
:10A1F000FEE7FEE7FEE7FEE704480549054A064B91
:10A2000070470000AD07000831010008B03600209B
:10A21000B03C0020B0380020B0380020B2F120035C
:10A220000AD5C2F1200320FA02F001FA03F341FA41
:10A2300002F140EA0300704741FA03F04FEAE1718E
:10A24000704710B54C1084EA530404D54042C1F164
:10A25000000138BF491E1B4204D55242C3F100031E
:10A2600038BF5B1E00F010F914F0804F04D040425C
:10A27000C1F1000138BF491E14F0004F04D0524212
:10A28000C3F1000338BF5B1E10BD40EA0103024664
:10A2900030B59B0710D14FF0013400E008C208C967
:10A2A0001D1B9D4315EAC41FF8D013F0FF0102F8EF
:10A2B000011B0DD01B0AF8E711F8013B002B02F837
:10A2C000013B05D011F8013B002B02F8013BF3D113
:10A2D00030BD10B5431C02E010F8011B71B18107BD
:10A2E000FAD14FF0013202C88C1A8C4314EAC21121
:10A2F000F9D0C01A0A0603D0C01E10BDC01A10BD86
:10A300000A0401D0801E10BD0902FCD0401E10BD01
:10A31000032A40F2308010F0030C00F0158011F891
:10A32000013BBCF1020F624498BF11F801CB00F869
:10A33000013B38BF11F8013BA2F1040298BF00F8BD
:10A3400001CB38BF00F8013B11F0030300F013818B
:10A35000083AC0F0088051F8043B083A51F804CBA1
:10A36000A0E80810F5E7121D5CBF51F8043B40F867
:10A37000043BAFF30080D20724BF11F8013B11F872
:10A3800001CB48BF11F8012B24BF00F8013B00F8B6
:10A3900001CB48BF00F8012B70474FF000020429A1
:10A3A000C0F0128010F0030C00F01B80CCF1040C04
:10A3B000BCF1020F18BF00F8012BA8BF20F8022B38
:10A3C000A1EB0C0100F00DB85FEAC17C24BF00F8DE
:10A3D000012B00F8012B48BF00F8012B70474FF00C
:10A3E000000200B5134694469646203922BFA0E8E5
:10A3F0000C50A0E80C50B1F12001BFF4F7AF0907F1
:10A4000028BFA0E80C5048BF0CC05DF804EB8900E1
:10A4100028BF40F8042B08BF704748BF20F8022B24
:10A4200011F0804F18BF00F8012B704710B504469B
:10A4300010F0030F08BF11F0030F40F015804FF02C
:10A44000013E121FC0F20E8051F8043BA3EB0E0C2C
:10A450002CEA030C1CEACE1C08BF40F8043BF0D0E9
:10A46000A1F1040102F10402521E08DB11F8013BC4
:10A47000002B00F8013BF7D11146FFF78EFF204675
:10A4800010BD70477047704753EA020C00F06980B6
:10A490002DE9F04B4FF00006002B1FBFB3FA83F5F8
:10A4A00003FA05F424FA05F65E4012BF1643B2FA29
:10A4B00082F502FA05F4C5F120051EBF22FA05FC5B
:10A4C00044EA0C04203556EA044C4FEA144418BF01
:10A4D000641C4FF000084FF00009904271EB030C30
:10A4E00039D3002919BFB1FA81F701FA07F6B0FA9A
:10A4F00080F700FA07F6C7F120071EBF20FA07FC15
:10A5000046EA0C062037B6FBF4FCA7EB0507103F24
:10A5100007F01F0BCBF120060CFA0BFB2CFA06F60A
:10A5200044BFB3460026202FA4BF5E464FF0000B69
:10A530005BEA060C08BF4FF0010B19EB0B09ABFBF4
:10A54000027C48EB0608C01B06FB02CC0BFB03CCCD
:10A5500071EB0C01C1E70B46024641464846BDE897
:10A56000F08B13B54FF000004FF00001AFF3008007
:10A57000BDE81C40704710B5203AC0F00B80B1E830
:10A580001850203AA0E81850B1E81850A0E8185028
:10A59000BFF4F5AF5FEA027C24BFB1E81850A0E831
:10A5A000185044BF18C918C0BDE810405FEA827C4B
:10A5B00024BF51F8043B40F8043B08BF7047D20762
:10A5C00028BF31F8023B48BF11F8012B28BF20F803
:10A5D000023B48BF00F8012B7047754600F028F891
:10A5E000AE4605006946534620F00700854618B080
:10A5F00020B5FFF701FEBDE820404FF000064FF008
:10A6000000074FF000084FF0000B21F00701AC46A7
:10A61000ACE8C009ACE8C009ACE8C009ACE8C009C6
:10A620008D4670470446AFF300802046F5F7E9FDFC
:10A63000004870474C36002001487047704700BF03
:10A640005036002001491820ABBEFEE7260002006C
:10A650007047000021F00042A2F16052B2F5801F65
:10A6600001F0004328BFD2F17F6C0BD95FEA001CD8
:10A6700043EAC20242EB507018BF704728BF20F077
:10A6800001007047B2F5801FBCBF184670474FEA03
:10A69000410C1CF5001F02D2084600F057BF70B5F0
:10A6A00000F082FB00000089FFF7F6BF4FF000408A
:10A6B000A0F580007047000010B591EA030F48BF75
:10A6C00083F0004300F10E84841A71EB030E05D26F
:10A6D000121943EB0E03001B61EB0E01DFF820C1E2
:10A6E0004FEA1154A4EB135E1CEA430F18BF9CEA17
:10A6F000445F71D023EA0C03DEF1200C21EA0451FF
:10A7000043F4801332D322FA0EFC10EB0C0023FA30
:10A710000EFC41EB0C01CEF1200C03FA0CFC10EB0B
:10A720000C0051F10001B1F5801FCEF1200C32D2A6
:10A7300001EB0451BDE8104012FA0CF258BF70470B
:10A74000401C38BF5FEA420218BF7047002814BFA0
:10A7500020F0010041F100014FEA410313F5001F11
:10A7600038BF7047A1F1C04100F06CBB012A43EB38
:10A770000302AEF1200EDEF11F0C32BF4FF0000CD1
:10A7800023FA0EF310EB030041EB0451B4EB115F1D
:10A79000D0D0A1EB045101F58011490801EB04511F
:10A7A000BDE810405FEA30000CD350F1000038BF24
:10A7B00012FA0CFC06D1C9E7401C38BF5FEA42021E
:10A7C000CAD1C3E74FEA410313F5001F38BF7047F2
:10A7D000A1F1C04100F036BB9CEA445F08D0BDE85F
:10A7E000104011EA5C0F04BF01F0004100207047E7
:10A7F000BDE8104070B500F0D7FA00BF64FBBE3E64
:10A800000000E0FF491058BFC1F140415B1058BF44
:10A81000C3F140438B42EFF3008070472DE9C04104
:10A8200030B4DFF8A0C23CEA111418BF3CEA13149C
:10A8300000F0EC8081EA03051CEA111444EAD574A7
:10A8400018BF1CEA131500F0C780A4EB05044FF0F5
:10A85000004545EAC12145EAC32341EA505143EA94
:10A86000525304F17F74994204F500344FEAC0203A
:10A870004FEAC22208BF904200F09C804FEA136565
:10A880000FF24016765D4FEA134506FB05F7C7F158
:10A89000807706FB07F74FEAD737A7FB03687642B6
:10A8A000C8F58038A7FB06CE38BFA8F1010807FB22
:10A8B00008E64FF0000EA6FB028CE6FB03CEDCF1AF
:10A8C000000CCEF1004E38BFAEF1010EA6FB0C58C5
:10A8D0004FF000074FF00005E6FB0E87A1FB08C60E
:10A8E000A0FB07CE16EB0E0645F10005E1FB076560
:10A8F00015F1E04E7EBFA4F580345FEA46066D4157
:10A9000016F1800745F100054FEA17274FEA066662
:10A9100047EA0567A6F1DE46B6F1805F4FEA1525E6
:10A920001FD9384624F0010C05EBC471BCF1FE6F51
:10A9300001EB0C1102D8F0BCBDE8008124425CBFE1
:10A9400001F5801E9EEAC47F02D4F0BCBDE8008100
:10A95000244238D4F0BCA1F1C041BDE8004100F070
:10A9600071BA4FEAD22242EA43524FEAD323A7FBFD
:10A9700002864FEAD02040EA415007FB03661EEAF8
:10A980000E0F4FEAD12105FB026658BFA6EB005619
:10A99000B6EB00564FEA520E4EEAC37E18EB0E0E8F
:10A9A00056EB530EBDD518EB02085E417F1C55F1E6
:10A9B0000005B6E74FF480154FF000074FF0000692
:10A9C0004FF00008ADE7F0BC4FF0000001F1C041CE
:10A9D00001F00041BDE8008111EA0C1F0CEA1315DB
:10A9E00000D00CE013EA0C1F00F025804FF00000AF
:10A9F000F0BC81EA030101F00041BDE80081F0BC38
:10AA0000BDE8004181EA030100F01CBAF0BCBDE8DA
:10AA1000004170B500F0C8F9097EFC3E00F007B8AF
:10AA200081EA03014FF0000001F00041704781EA24
:10AA3000030100F007BAF0BCBDE800414FF0000090
:10AA400021497047FFFDFBF9F7F5F4F2F0EEEDEB6D
:10AA5000E9E8E6E4E3E1E0DEDDDBDAD8D7D5D4D31C
:10AA6000D1D0CFCDCCCBCAC8C7C6C5C4C2C1C0BF68
:10AA7000BEBDBCBBBAB9B8B7B6B5B4B3B2B1B0AF6E
:10AA8000AEADACABAAA9A8A8A7A6A5A4A3A3A2A152
:10AA9000A09F9F9E9D9C9C9B9A999998979796950D
:10AAA00095949393929191908F8F8E8E8D8C8C8BA9
:10AAB0008B8A898988888787868585848483838231
:10AAC000828181800000FF070000F87F4FEA410388
:10AAD0004FEA5353A3F58063D3F11E03C8BFD3F1EC
:10AAE000210C0CDD4FF0004242EAC12242EA5052F2
:10AAF00032FA03FC8CEAE17CACEBE1707047102B7E
:10AB0000C4BF0020704703F5787CBCF1FF3F04D040
:10AB10006FF0004282EA2100704770B500F044F9FE
:10AB20004992248000207047F2E700004FEA115359
:10AB3000A3F58063D3F11E03A8BFD3F1200C08DB7B
:10AB40004FF0004242EAC12252EA505232FA03F078
:10AB5000704709420BD4102BC4BF0020704703F587
:10AB6000787CBCF1FF3F05D04FF0FF3070474FF0CD
:10AB70000000704770B500F017F900BF49922480BB
:10AB800000207047F0E710F0004248BF4042B0FAA2
:10AB900080F310FA03F10AD0C3F11D0303F58063BB
:10ABA0004FEA415002EB035202EBD12170474FF0C4
:10ABB00000007047B0FA80F310FA03F10AD0C3F135
:10ABC0001D0303F580634FEA41504FEA035202EB45
:10ABD000D12170474FF000007047000051EA030C8C
:10ABE00017D41CF5801F58BFBCF5801F00F10680EC
:10ABF000994218BF704708BF9042704707D711F5B8
:10AC0000801F58BF13F5801F19D49942704789429D
:10AC100070471CF5801F08D5BCF5801FF7D58B4207
:10AC200018BF704708BF824270474FF4001C1CEBEE
:10AC3000410F38BF1CEB430F01D28B42704770B5F8
:10AC400000F0B2F8922449004FF000514FF08053C9
:10AC5000FFF7D8BDDFF848C170B51CEA111E1EBF52
:10AC60001CEA13159EEA0C0F95EA0C0F00F06F809A
:10AC700081EA030423EA4C134EEAD47E21EA4C1104
:10AC800041F4801143F48013AE44A1FB024CA0FBBD
:10AC90000365AEF17F7E361955EB0C05A1FB034C25
:10ACA0004CF10003A0FB021C16EB0C06654153F1AE
:10ACB0000003094218BF46F0010613F4007F0BD1D0
:10ACC0004FEA03314FEA0530340341EA155140EAB7
:10ACD00016506FF003020AE04FEAC3214FEAC52085
:10ACE000F40241EA555140EA56506FF0020202EB7D
:10ACF0002E4201EB025585EACE710AD05FEA440C80
:10AD000018BF24F0004450F1000041F1000120EA96
:10AD1000D47040F2FE7C624500D270BDA84214BFE0
:10AD20004FF080444FF04044002E08BF0024BEF195
:10AD3000806FA8BFA1F1C041BDE8704080F2828061
:10AD40004FF0000001F1C04101F0004170479EEA60
:10AD50000C0F0CEA131518BF95EA0C0F06D04FF034
:10AD6000000081EA030E0EF0004170BD00F01CF8F7
:10AD70008900013E00F007B800F009B84FEA430C23
:10AD80005FEA5C5C08D081EA030100F05BB84FEA3F
:10AD9000410C5FEA5C5CF6D14FF00000014970475E
:10ADA0000000FF070000F87F0EF1020E2EF0030EE8
:10ADB0005EF8046B364205D4012A43EB030515F512
:10ADC000001F12D8012841EB010C1CF5001F0CD804
:10ADD0000ED14FEAD17C15F5001F0CEB4C0C0CF199
:10ADE000020C08BF4CEBD37C04E04FF0080C01E0F0
:10ADF0004FEAD37C0CEB4C0526FA05F606F0070665
:10AE0000B6F1040C06D20EEB860CBDE870404CF097
:10AE1000010C6047DFE80CF0090B02024FF0004123
:10AE20004FF00000A1F5002170BD19461046012821
:10AE300051EB010418BFD4F5001484BF002001F0C9
:10AE4000004170BD0808A0F500114FEA31017047BC
:10AE500053EA010C17D41CF5801F58BFBCF5801FA6
:10AE600000F106808B4218BF704708BF82427047CE
:10AE700007D713F5801F58BF11F5801F19D48B42D7
:10AE800070479B4270471CF5801F08D5BCF5801F9A
:10AE9000F7D5994218BF704708BF904270474FF4EA
:10AEA000001C1CEB430F38BF1CEB410F01D2994231
:10AEB00070470FB40CBC03BCFFF7C1BE91EA030F8F
:10AEC00010B581F000413FF5FFAB83F0004300F087
:10AED00009B8000010B591EA030F48BF83F00043A2
:10AEE0003FF5F2AB841A71EB030E07D212198EF004
:10AEF000004E43EB0E03001B61EB0E01DFF8A4C113
:10AF00004FEA1154A4EB135E1CEA430F18BF9CEAEE
:10AF1000445F00F0B08023EA6C03524221EA0451FE
:10AF2000C3EB6C0338BF5B1EDEF1200C25D322FA85
:10AF30000EFC10EB0C0043FA0EFC41EB0C01CEF1C1
:10AF4000200C03FA0CFC10EB0C0051F10001CEF1C7
:10AF5000200C29D401EB0451BDE8104012FA0CF288
:10AF600058BF7047401C1CBFB2F1004F704700280B
:10AF70000CBF491C20F00100704712EB020C43EBA0
:10AF8000030218BF4FF0010C4CEA4202AEF1200E52
:10AF9000DEF11E0C54D943FA0EFC10EB0C0051F1FB
:10AFA000FF31CEF11E0CD5D50CF1010C12FA0CFCC0
:10AFB000404141EB010101EB445E5FEA5E5E10D966
:10AFC00001EB0451BDE8104010EBDC7038BFBCF160
:10AFD000004F18BF704700280CBF491C20F001002B
:10AFE000704730D24FEAD42E11F5001124F40064DA
:10AFF0001BD0B1FA81F20B3AA41AA41ED2F120039D
:10B00000914030FA03F31943904001EBCE71002CCC
:10B0100001EB0451BDE81040A8BF704701F1C041E9
:10B020004FF0000001F000417047B0FA80F310FAD1
:10B0300003F100D110BDE41A173C4805C90AE4E742
:10B0400001EB045110BD491001EB0451BDE8104063
:10B050004FEA300002E04FF0000170474A0008BF9D
:10B060000042F8D0B2F5001F28BF704701F0004140
:10B070004FF0000070479CEA445F07D0BDE81040E5
:10B0800011EA5C0F04BF002100207047BDE81040AA
:10B0900070B5FFF789FE00BF40DFF63E83F0004148
:10B0A000104670470000E0FF43004FEAD30C4FEA20
:10B0B0003C0C43401FBF40070CF1605113F0FE4FA2
:10B0C00070471CF0006F03D100200CF00041704766
:10B0D0000CF0004343EA507010B540EACC0000F099
:10B0E000E8F900BF000000924FEA0001FFF7AABE96
:10B0F0004FF000414FF00000A1F500217047000023
:10B1000090EA010F48BF81F0004100F13682421AF7
:10B110003CBF801A89184FEAD0524FF07F4C1CEA8E
:10B12000410FA2EBD15318BF9CEA026F00F03B80A5
:10B130004FF0004C4CEA00204CEA012121FA03FCBC
:10B1400010EB0C0C1ED202F1FF325FEA1C2040EB28
:10B15000C25038BF70471CF07F0F4FEA400C18BF39
:10B16000BCF17F4F38BF7047C3F12003994008BF3F
:10B1700020F00100BCF17F4F38BF7047A0F1C04004
:10B1800000F0E4B94FEA3C00000A40EBC25028BF8F
:10B190001CF0FF0F4FEA400CE6D018BFBCF17F4F08
:10B1A00038BF7047EAE79CEA026F05D010EA5C0FEF
:10B1B00008BF00F00040704710B500F07AF900BFFA
:10B1C00064FBBE3E4FF47F0C1CEAD0121EBF1CEA8B
:10B1D000D11392EA0C0F93EA0C0F00F0858090EAED
:10B1E000010F48BF42F4807240F4000C41F40000AB
:10B1F0002CF07F4120F07F4000B58142A2EB03029A
:10B200000FF2081CACEB504EC0F100009EF800E0BD
:10B210004FEA4E0E00FB0EFC38BF49004FEA2C1CD3
:10B2200002F5FA020CFB0EF34FEACE1E4FEA112C88
:10B230004FEAC1210EEB635E42EB22420EFB0CFC97
:10B240004FEA1C5300FB03114FEA112C4FEA013166
:10B250000EFB0CFC4FEADC4C00FB0C11C14228BF7A
:10B2600009184CEB03335DF804EB10EB410143EBA1
:10B27000C250B2F57C0F38BF704729D512F0F00FDD
:10B280001CBF00F1C04000F0004070470081828385
:10B290008485868788898B8C8D8E8F9192939596E5
:10B2A00097999A9C9D9FA0A2A3A5A7A8AAACAEB06F
:10B2B000B2B3B5B7B9BCBEC0C2C5C7C9CCCED1D474
:10B2C000D7D9DCDFE2E6E9ECF0F3F7FAFE000000A4
:10B2D0004FEA400C0CF1807CBCF17E4F28BF7047D8
:10B2E000B0F1C04000F032B990EA010F0CEAD1137E
:10B2F00048BF42F48072624538BF634507D213F4F9
:10B300007F0F16D080EA010000F00040704710B5B2
:10B3100000F0CFF8097EFC3E00F005B880EA01009D
:10B3200000F00040704780EA010000F0004000F0AB
:10B330000DB912F47F0F04BF0248704780EA010084
:10B3400000F004B90000C07FC10DD1F19E0206DB00
:10B350004FEA002343F0004323FA02F07047004213
:10B3600007D54FEA4001B1F1FE4F02D24FF0000085
:10B37000704710B500F09DF8499224800020704776
:10B380006FEA200070470000B0FA80F310FA03F271
:10B39000C3F19D030AD0D90501EB1220530638BF33
:10B3A000704700F1010008BF20F001007047000065
:10B3B0004FF47F0C1CEAD0121EBF1CEAD11392EA94
:10B3C0000C0F93EA0C0F00F0478090EA010F48BF82
:10B3D00042F480724FF0004C4CEA00204CEA01210C
:10B3E00002EB0302A0FB0113A2F50002002918BF23
:10B3F00043F001035B0028BF4FEA330342EB2242D4
:10B400005FEA132C4CEBC2502EBFBCEB436FB2F57E
:10B410007C0F70474FEA036CBCF1004F08BF20F06F
:10B420000100B2F57C0F38BF70470BD582F0FF02E8
:10B4300012F5803FC8BF704700F1C040D8BF00F090
:10B440000040704700F5000C5FEA4C0C48BF7047A5
:10B45000B0F1C04000F07AB890EA010F0CEAD113C5
:10B4600048BF42F48072624538BF634504D280EA27
:10B47000010000F00040704710B500F01AF800BF5E
:10B480008900013E00F007B800F009B85FEA410CFE
:10B490005FEA1C6C08D080EA010000F057B85FEA50
:10B4A000400C5FEA1C6CF6D14FF00040A0F5800024
:10B4B00070470EF1020E2EF0030E5EF8044B24428C
:10B4C00004D44FEA4102B2F17F4F11D84FEA400352
:10B4D000B3F17F4F0CD80ED14FEAD07CB2F17F4F41
:10B4E0000CEB4C0C0CF1020C08BF4CEBD17C04E0D3
:10B4F0004FF0080C01E04FEAD17C0CEB4C0324FA2E
:10B5000003F404F00704B4F1040C06D20EEB840C2F
:10B51000BDE810404CF0010C6047DFE80CF0070874
:10B5200002024FF00040A0F5800010BD0846420026
:10B5300018BFD2F1807288BF00F0004010BD10B576
:10B54000FFF77AF84FF00001016010BDFF2141EADA
:10B55000D050C005704780F0004090EA010F7FF5A1
:10B56000D6AD81F0004100F008B8000090EA010F6C
:10B5700048BF81F000413FF5CAAD421A04D882F0BD
:10B580000042A0EB020011444FEAD0524FF07F4C32
:10B590001CEA410FA2EBD15318BF9CEA026F4AD0BC
:10B5A0004FF0004C4CEA00204CEA012121FA03FC48
:10B5B000B0EB0C0C0FD412F0FE0F36D05FEA4C004B
:10B5C0001DD5001240EBC25038BF70471CF03F0F32
:10B5D00018BF70470BE0A2F101025FEA1C2040EBAC
:10B5E000C25038BF70471CF07F0F18BF7047C3F1BF
:10B5F0002003994014BF401E20F0010070478008CE
:10B600004FEA122308BF7047B0FA80FCA2EB0C028D
:10B61000CCF1280C60FA0CF093EA122F04BF00EB77
:10B62000C25070474FEAC3707047130A5FEADC10DC
:10B6300008BF7047F6E79CEA026F04D010EA5C0F7F
:10B6400008BF0020704710B5FFF733FF40DFF63E1C
:10B6500081F0004070470000000000000000808082
:10B66000808080008000A0A0A0000000000050505A
:10B67000F850F85050002078A07028F02000C0C882
:10B680001020409818006090A040A8906800C0402A
:10B69000800000000000204080808040200080402A
:10B6A000202020408000005020F820500000002082
:10B6B00020F8202000000000000000C040800000B2
:10B6C00000F8000000000000000000C0C0000008FA
:10B6D000102040800000708898A8C8887000206002
:10B6E000202020207000708808304080F80070888A
:10B6F00008300888700010305090F8101000F88062
:10B70000F00808887000304080F088887000F808E1
:10B7100010204040400070888870888870007088D1
:10B7200088780810600000C0C000C0C000000000A1
:10B73000C0C000C0408010204080402010000000A9
:10B74000F800F80000008040201020408000708841
:10B7500008102000200070880868A8A87000708871
:10B7600088F888888800F08888F08888F0007088D9
:10B77000808080887000E09088888890E000F88061
:10B7800080F08080F800F88080F0808080007088F1
:10B79000808098887800888888F888888800E040C9
:10B7A00040404040E0003810101010906000889039
:10B7B000A0C0A0908800808080808080F80088D819
:10B7C000A8A8888888008888C8A898888800708871
:10B7D000888888887000F08888F080808000708871
:10B7E0008888A8906800F08888F0A0908800708809
:10B7F000807008887000F820202020202000888891
:10B800008888888870008888888888502000888880
:10B8100088A8A8A850008888502050888800888868
:10B82000502020202000F80810204080F800E08000
:10B8300080808080E0000080402010080000E02030
:10B8400020202020E00020508800000000000000A0
:10B8500000000000F8008040200000000000000010
:10B860007008788878008080B0C88888F000000070
:10B8700060908090600008086898888878000000D0
:10B880007088F8807000205040E040404000000088
:10B890007888887808708080B0C8888888004000E0
:10B8A00040404040400020006020202020C0808098
:10B8B00090A0C0A09000C04040404040E000000088
:10B8C000D0A8A88888000000B0D090909000000018
:10B8D0006090909060000000E09090E08080000018
:10B8E00070909070101000005060404040000000C8
:10B8F00070806010E0004040E04040406000000088
:10B90000909090907000000088888850200000007F
:10B910008888A8A8500000008850205088000000A7
:10B920009090907010600000F8102040F8002040C7
:10B930004080404020002020202020202000804007
:10B940004020404080006890000000000000FCFCA7
:10B95000FCFCFCFCFC00002070A820200000002063
:10B9600020A8702000000010207820100000002087
:10B970001078102000000050487C081000000020C3
:10B9800040F84828000000E0F0F8F0E00000001067
:10B99000181C181000000080402040803C0000006F
:10B9A00000000000A8006162636465666768696AF8
:10B9B0006B6C6D6E6F707172737475767778797A5F
:10B9C000004142434445464748494A4B4C4D4E4F3F
:10B9D000505152535455565758595A0030313233FA
:10B9E0003435363738392B2D2A2F3D2528295B5DF4
:10B9F0007B7D3C3E267C7E5E00202E2C3A3B5F3FCA
:10BA00002140232427225C00000A0D0000010002CF
:10BA10000001000300010002000100040001000217
:10BA20000001000300010002000100050001000206
:10BA300000010003000100020001000400010002F7
:10BA400000010003000100020001000600010002E5
:10BA500000010003000100020001000400010002D7
:10BA600000010003000100020001000500010002C6
:10BA700000010003000100020001000400010002B7
:10BA800000010003000100020001000700010002A4
:10BA90000001000300010002000100040001000297
:10BAA0000001000300010002000100050001000286
:10BAB0000001000300010002000100040001000277
:10BAC0000001000300010002000100060001000265
:10BAD0000001000300010002000100040001000257
:10BAE0000001000300010002000100050001000246
:10BAF0000001000300010002000100040001000237
:10BB00000001000300010002000100000004000227
:10BB10000001800040002000100008000400020026
:10BB200000000080004000200010000800400020BD
:10BB30000010000800040002706978656C4333004F
:10BB400046415446535F53440046415446530046D1
:10BB5000415446535F466C61736800466C61676C84
:10BB600069676874004B65790053594D424F4C002A
:10BB70004354524C004E554D42455200555050458D
:10BB800052004C4F57455200A8BB0008000000204F
:10BB9000380200006C010008A4BC00083802002034
:10BBA000783A0000C80100081338BB4208131D0290
:10BBB0004B085B0C1B20430C5A650C1A6F0C5A493E
:10BBC0000C1A9D0C1E5468697320031011464146DF
:10BBD0005453206F6E2053444363617264F9191605
:10BBE000666C6173681A403C1A243C132F035B088F
:10BBF0004F0C4B4D0474D184A24A0438090102034E
:10BC000004060708090C1306080B1156B630311A42
:10BC10008250321A4BA6B9205A7C105AC1101A759C
:10BC200010321C5ADC101A6910320E5AF9101A70B0
:10BC30001032031B08BA1022051AB89C1AC8041A3D
:10BC4000D8041AE8041AF80413080114205C180236
:10BC500070204BAD6CA42310115AB50C2320215A2F
:10BC6000BD0C2330315AC50C2340415ACD0C235012
:10BC7000515AD50C2360615ADD0C2370715AE50CC2
:10BC80002380811A98D81AA4041AB0041ABC041A82
:10BC9000C8041AD4041AE0041AEC045AED2C6113F7
:04BCA00016EFE23089
:0400000508000131BD
:00000001FF
